:100000000C9453010C947B010C947B010C947B01A8
:100010000C947B010C947B010C947B010C942009C3
:100020000C947B010C947B010C947B010C94BC0818
:100030000C947B010C947B010C947B010C947B0150
:100040000C941A080C947B010C948A080C94640894
:100050000C947B010C947B010C947B010C947B0130
:100060000C947B010C947B013D2050415F4D415825
:10007000003D2050415F48494748003D2050415FC6
:100080004C4F57003D2050415F4D494E003D2031BF
:10009000362062697473003D2038206269747300F1
:1000A0003D2044697361626C6564006E524632346F
:1000B0004C30312B006E524632344C3031003D20F2
:1000C000323530204B425053003D2032204D4250BB
:1000D00053003D2031204D425053000A0B0C0D0EB1
:1000E0000F53544154555309093D2030782530327F
:1000F000782052585F44523D25782054585F44532D
:100100003D2578204D41585F52543D257820525866
:100110005F505F4E4F3D25782054585F46554C4CFC
:100120003D25780D0A0041524309093D2025640D03
:100130000A00504120506F7765720925530D0A005F
:1001400084007B0071006800435243204C656E6759
:1001500074680925530D0A00A00097008D004D6FAB
:1001600064656C09093D2025530D0A00B500AB00FC
:100170004461746120526174650925530D0A00D2EF
:1001800000C900BE0044594E50442F4645415455C5
:10019000524500434F4E464947090052465F53457A
:1001A0005455500052465F43480900454E5F52582F
:1001B0004144445200454E5F4141090052585F504E
:1001C000575F50302D360054585F41444452090067
:1001D00052585F414444525F50322D350052585FAF
:1001E000414444525F50302D3100535049205370E8
:1001F0006565647A093D202564204D687A0A00729D
:100200006164696F206861726477617265206973E7
:10021000206E6F7420726573706F6E64696E6721F3
:10022000210000000000240027002A000000000038
:10023000250028002B000001020304050D0A0025FB
:1002400030327800203078002553093D000D0A0037
:1002500020307825303278002553093D0000000019
:1002600000230026002900040404040404040402FA
:100270000202020202030303030303010204081043
:100280002040800102040810200102040810200010
:100290000000080002010000030407000000000045
:1002A00000000000590911241FBECFEFD8E0DEBFC7
:1002B000CDBF15E0A0E0B1E0EAE0FEE302C00590AA
:1002C0000D92A031B107D9F726E0A0E1B5E001C059
:1002D0001D92A53AB207E1F711E0C3E5D1E004C0F1
:1002E0002197FE010E94DD1EC235D107C9F70E9489
:1002F000540A0C94031F0C940000833081F028F4FE
:10030000813099F08230A9F008958730A9F08830C3
:10031000C9F08430B1F4809180008F7D03C080915A
:1003200080008F7780938000089584B58F7784BD97
:10033000089584B58F7DFBCF8091B0008F77809337
:10034000B00008958091B0008F7DF9CFCF93DF93F7
:10035000E1E9F2E08491EDE7F2E0D491E9E6F2E040
:10036000C491CC23A1F081110E947D01EC2FF0E01B
:10037000EE0FFF1FE35AFD4FA591B491EC91ED23D1
:1003800081E090E009F480E0DF91CF91089580E072
:1003900090E0FACF1F93CF93DF93282F30E0F9013D
:1003A000E157FD4F8491F901E558FD4FD491F901D2
:1003B000E959FD4FC491CC23A9F0162F81110E9459
:1003C0007D01EC2FF0E0EE0FFF1FE45DFD4FA591E6
:1003D000B4918FB7F894EC91111108C0D095DE2339
:1003E000DC938FBFDF91CF911F910895DE2BF8CF63
:1003F000682F809180060E94CA0180919706909193
:1004000098068230910538F0880F991F880F991F40
:1004100005970197F1F7089581E00C94F801209178
:100420007E0630917F064091800650918106241708
:10043000350721F0682F822F0C94CA010895CF93BD
:10044000DF9390E0FC01E558FD4F249189599D4FC1
:10045000FC0184918823D1F090E0880F991FFC0162
:10046000EE5DFD4FA591B491FC01E45DFD4FC5919A
:10047000D49161110EC09FB7F8948C91E22FE09552
:100480008E238C932881E223E8839FBFDF91CF9155
:1004900008958FB7F894EC91E22BEC938FBFF6CFD1
:1004A0001F93CF93DF93182FEB0161E00E941F028F
:1004B000209739F460E0812FDF91CF911F910C9448
:1004C000CA01CF3FD10511F461E0F5CFE12FF0E093
:1004D000E157FD4FE491E33031F140F4E130B1F008
:1004E000E230E1F0C038D1057CF7E4CFE73029F104
:1004F000E83059F1E430B1F7809180008062809358
:100500008000D0938B00C0938A0004C084B58068BB
:1005100084BDC7BDDF91CF911F91089584B58062DE
:1005200084BDC8BDF7CF8091800080688093800033
:10053000D0938900C0938800EDCF8091B00080688F
:100540008093B000C093B300E5CF8091B00080628B
:100550008093B000C093B400DDCF806480937C00B2
:1005600080917A00806480937A0080917A0086FD81
:10057000FCCF809178009091790008953FB7F8946E
:100580008091640590916505A0916605B09167051D
:1005900026B5A89B05C02F3F19F00196A11DB11DDE
:1005A0003FBFBA2FA92F982F8827BC01CD01620F1A
:1005B000711D811D911D42E0660F771F881F991FD5
:1005C0004A95D1F708958F929F92AF92BF92CF92A2
:1005D000DF92EF92FF924B015C010E94BE026B0121
:1005E0007C010E94BE026C197D098E099F09683E3C
:1005F000734081059105A8F321E0821A9108A108B2
:10060000B10888EEC80E83E0D81EE11CF11C8114ED
:100610009104A104B10429F7FF90EF90DF90CF90EF
:10062000BF90AF909F908F9008952FB7F8946091EE
:1006300060057091610580916205909163052FBFFF
:100640000895AF92BF92CF92DF92EF92FF920F93F5
:100650001F93CF93DF936C017B018B01040F151F58
:10066000EB015E01AE18BF08C017D10759F06991C0
:10067000D601ED91FC910190F081E02DC601099524
:10068000892B79F7C501DF91CF911F910F91FF90D1
:10069000EF90DF90CF90BF90AF900895FC01538D05
:1006A000448D252F30E0842F90E0821B930B54174C
:1006B00010F0CF96089501970895FC01918D828DD9
:1006C000981761F0A28DAE0FBF2FB11D5D968C9172
:1006D000928D9F5F9F73928F90E008958FEF9FEFB1
:1006E0000895FC01918D828D981731F0828DE80F6D
:1006F000F11D858D90E008958FEF9FEF0895FC0127
:10070000918D228D892F90E0805C9F4F821B9109F3
:100710008F739927089588E695E00E947F0321E072
:10072000892B09F420E0822F089580E090E0892B46
:1007300029F00E948B0381110C9400000895FC01A4
:10074000A48DA80FB92FB11DA35ABF4F2C91848D32
:1007500090E001968F739927848FA689B7892C938F
:10076000A089B1898C91837080648C93938D848DE2
:10077000981306C00288F389E02D80818F7D8083E5
:100780000895EF92FF920F931F93CF93DF93EC01A5
:1007900081E0888F9B8D8C8D98131AC0E889F98928
:1007A000808185FF15C09FB7F894EE89FF8960832B
:1007B000E889F98980818370806480839FBF81E0AC
:1007C00090E0DF91CF911F910F91FF90EF900895EE
:1007D000F62E0B8D10E00F5F1F4F0F731127E02EC9
:1007E0008C8D8E110CC00FB607FCFACFE889F98901
:1007F000808185FFF5CFCE010E949F03F1CFEB8D65
:10080000EC0FFD2FF11DE35AFF4FF0829FB7F894D4
:100810000B8FEA89FB8980818062CFCFCF93DF93F2
:10082000EC01888D8823B9F0AA89BB89E889F98908
:100830008C9185FD03C0808186FD0DC00FB607FC3D
:10084000F7CF8C9185FFF2CF808185FFEDCFCE0170
:100850000E949F03E9CFDF91CF9108958EBD0000E4
:100860000DB407FEFDCF8EB50895009799F0611580
:10087000710581F08E5C9E4FFC01808190E06E5C82
:100880007E4FFB0120818E5C9D4F820F911DFC01EC
:100890008081089580E00895CF93C82F682F88E65F
:1008A00095E00E94C1038C2FCC0F990BCF91089536
:1008B000FC0101900020E9F73197AF01481B590B6B
:1008C000BC0188E695E00C9421038F929F92AF9231
:1008D000BF920F931F93CF93DF93CDB7DEB7A1974E
:1008E0000FB6F894DEBF0FBECDBF19A2423008F498
:1008F0004AE08E010F5D1F4F842E912CB12CA12C4C
:10090000A50194010E94FE1BE62FB901CA01EA303D
:10091000F4F4E05DD801EE938D01232B242B252BDD
:1009200079F790E080E0109719F0CD010E9458040B
:10093000A1960FB6F894DEBF0FBECDBFDF91CF9169
:100940001F910F91BF90AF909F908F900895E95C99
:10095000E1CFCF93DF930E945804EC0184E494E04C
:100960000E9458048C0F9D1FDF91CF9108950C9425
:100970005804BC0190E080E04AE00C946504CF93F9
:10098000DF930E94B904EC0184E494E00E945804CF
:100990008C0F9D1FDF91CF9108950F931F930091AE
:1009A000820610918306209184063091850640E0EE
:1009B00052E16AE770E080E0041715072607370761
:1009C00040F476956795579547958F5F8630A1F7E8
:1009D00087E0982F906A9695809581709CBD8DBD1B
:1009E00080E01F910F910C94F801CF93C82F0E94C3
:1009F000CD048C2F0E942E04809386068FEF0E94D8
:100A00002E04C82F0E940C028C2FCF910895CF93F3
:100A1000C82F0E94CD048C2F80620E942E048093E8
:100A20008606CF910C940C0281EE0E9407058091FE
:100A300086060895CF93DF93D82FC62F0E94CD044A
:100A40008D2F80620E942E04809386068C2F0E9438
:100A50002E04DF91CF910C940C026091900661FD01
:100A60000AC062606093900680E00E941A058BE1E4
:100A70009EE40197F1F70895FF920F931F93CF9390
:100A8000DF93C82FF62E072F142F0E94CD048C2F32
:100A900080620E942E0480938606CF2DD02F1150A5
:100AA00020F089910E942E04FACFDF91CF911F91FF
:100AB0000F91FF900C940C020E942D0560919006FE
:100AC00061606093900680E00E941A0560E787E00D
:100AD0000E941A0581E00E940F0280918A068823F5
:100AE00039F040918F066AE876E08AE00C943C0584
:100AF00082E00E94F504E6E3F2E0E49121E030E0D8
:100B000001C0220FEA95EAF72095622F682382E060
:100B10000C941A050E94CD0480E50E942E04809357
:100B2000860683E70E942E040C940C02FF920F931A
:100B30001F93CF93DF93C62FD42F9F938F9388E576
:100B400092E09F938F930E949417DC0F0F900F9069
:100B50000F900F9000E512E0CD1791F0FF24F39471
:100B6000FC0E8C2F0E94F5041F928F931F930F93FE
:100B70000E9494170F900F900F900F90CF2DECCFF5
:100B80008DE492E09F938F930E9494170F900F90A3
:100B9000DF91CF911F910F91FF9008952F923F9277
:100BA0004F925F926F927F928F929F92AF92BF927D
:100BB000CF92DF92EF92FF920F931F93CF93DF9329
:100BC0001F92CDB7DEB7962E342E4DB65EB69F93EC
:100BD0008F9388E492E09F938F930E949417390C2F
:100BE0000F900F900F900F9084E4C82E82E0D82EC3
:100BF0009FE3A92E92E0B92E931409F44CC06DB670
:100C00007EB620908F06022D10E08DB79EB7801B18
:100C1000910B0FB6F8949EBF0FBE8DBFEDB7FEB718
:100C200031967F01F1E0F90DF9830E94CD04892D01
:100C30008F710E942E048093860647012A948FEFBD
:100C4000281631F00E942E04F40181934F01F6CF53
:100C50000E940C02DF92CF920E9494170E0D1F1D6E
:100C60000F900F90015011090E151F0568F0F80143
:100C700080811F928F93BF92AF920E9494170F9022
:100C80000F900F900F90EECF0FB6F8947EBE0FBE70
:100C90006DBE9980B1CF8CE392E09F938F930E94B9
:100CA00094170F900F900FB6F8945EBE0FBE4DBE16
:100CB0000F90DF91CF911F910F91FF90EF90DF90F8
:100CC000CF90BF90AF909F908F907F906F905F90EC
:100CD0004F903F902F900895DC011596ED91FC9177
:100CE000309729F0208131812115310511F40E94BE
:100CF000E31EFC0183819481820F931F0895CF939B
:100D0000C62FFC012281621710F00E94E31E0E9490
:100D10006C068C0F911DCF910895DF92EF92FF9298
:100D20000F931F93CF93DF938C017B0160E00E94B0
:100D30007F06FC018081F801D080D1E0DD1570F4E0
:100D4000B70190E00E943504C82F6D2FC8010E94A2
:100D50007F06FC0180818C27DF5FF0CFDF91CF9190
:100D60001F910F91FF90EF90DF9008958F929F92C7
:100D7000AF92BF92CF92DF92EF92FF920F931F93A9
:100D8000CF93DF934C018B016A01FC018081FB0151
:100D90008083D0E0C0E0F40180818C171D06A9F0AB
:100DA000A0F06C2FC4010E947F065C016C2FC8016B
:100DB0000E947F067C01F5018081B60190E00E94CF
:100DC0003504F70180832196E6CFDF91CF911F9103
:100DD0000F91FF90EF90DF90CF90BF90AF909F90DA
:100DE0008F900895AF92BF92CF92DF92EF92FF92D1
:100DF0000F931F93CF93DF93EC018B01B42EA22EA0
:100E0000672B59F0E42EF12C8A8190E0C22ED12C70
:100E10008C199D098E159F0514F40E94E31ECE01C6
:100E20000E946C06A701B8018C0D9D1D0E94E81E52
:100E3000BA0CB882DF91CF911F910F91FF90EF9084
:100E4000DF90CF90BF90AF9008950F931F93CF93F3
:100E50008C01CB01FB012081F801C081C21708F48D
:100E6000C22FF801C0830E946C0620E04C2FBC0109
:100E7000C801CF911F910F910C94F206EF92FF924F
:100E80000F931F93CF93DF938C01E62EFC01F0802C
:100E9000CF2DD0E0CE01019622812817190609F046
:100EA00014F40E94E31EC8010E946C06F394F8013A
:100EB000F082C80FD91FE88281E0DF91CF911F91A6
:100EC0000F91FF90EF900895AF92BF92CF92DF9273
:100ED000EF92FF920F931F93CF93DF938C017B01CF
:100EE0006A01FB0140814150FC01C081C40FF60141
:100EF000C083C6010E946C064C2F50E070E060E099
:100F00000E94DF1AC0E0F7018081C81720F5D0E009
:100F1000F8018081D817E8F46C2FC7010E947F0682
:100F20005C016D2FC8010E947F06F501608170E0B1
:100F3000FC01808190E00E943504B82E6C2F6D0F6B
:100F4000C6010E947F06FC0190819B259083DF5F94
:100F5000DFCFCF5FD8CFDF91CF911F910F91FF905F
:100F6000EF90DF90CF90BF90AF900895AF92BF9277
:100F7000CF92DF92EF92FF920F931F93CF93DF9365
:100F80006C017B01EA01DB018C91F60110811817DD
:100F900008F4182F1883CE010E946C06412F50E0F0
:100FA00070E060E00E94DF1A10E0D6010C9110178B
:100FB00088F4612FC6010E947F065C016881601B76
:100FC000610FCE010E947F06F5012081DC012C9388
:100FD0001F5FEBCF10E0F701B0801B1598F4612F75
:100FE000C7010E947F066C0168816B19610FCE01F9
:100FF0000E947F06FC019081D6018C9198279083F6
:101000001F5FE9CFDF91CF911F910F91FF90EF907C
:10101000DF90CF90BF90AF900895CF93DF93EC0116
:101020000E946C064A8150E070E060E0DF91CF9151
:101030000C94DF1A1F920F920FB60F9211242F9368
:101040003F938F939F93AF93BF938091600590914F
:101050006105A0916205B091630530915F0523E0C1
:10106000230F2D3758F50196A11DB11D20935F0563
:101070008093600590936105A0936205B09363052A
:101080008091640590916505A0916605B091670512
:101090000196A11DB11D8093640590936505A093F1
:1010A0006605B0936705BF91AF919F918F913F9176
:1010B0002F910F900FBE0F901F90189526E8230FC9
:1010C0000296A11DB11DD2CF1F920F920FB60F92A3
:1010D00011242F933F934F935F936F937F938F933D
:1010E0009F93AF93BF93EF93FF9388E695E00E94A1
:1010F0009F03FF91EF91BF91AF919F918F917F914E
:101100006F915F914F913F912F910F900FBE0F9074
:101110001F9018951F920F920FB60F9211242F93C4
:101120008F939F93EF93FF93E0917805F09179056A
:101130008081E0917E05F0917F0582FD1BC090814A
:10114000809181058F5F8F7320918205821741F016
:10115000E0918105F0E0E859FA4F958F8093810581
:10116000FF91EF919F918F912F910F900FBE0F9054
:101170001F9018958081F4CF1F920F920FB60F9297
:1011800011242F933F938F939F93EF93FF9380911D
:10119000350587FF1FC01092850010928400809152
:1011A00035058F5F809335058091350587FF04C035
:1011B000809135058C30ACF0809184009091850051
:1011C000049680349C4990F1809184009091850030
:1011D00004962EC08091350587FFE1CF80913505BB
:1011E000DECF2091840030918500E09135058E2F6F
:1011F000EE0F990BFC01EE0FFF1FE80FF91FEF5EDA
:10120000FA4F81819281820F931F9093890080937E
:10121000880080913505FF91EF919F918F913F91CB
:101220002F910F900FBE0F901F90189580E49CE9AE
:1012300090938900809388008FEF80933505EBCFE2
:101240001F920F920FB60F9211242F933F934F933B
:101250005F936F937F938F939F93AF93BF93EF931E
:10126000FF9380915A05882341F0809110058823CF
:1012700021F08DEF94E00E94A9048091100588234D
:1012800019F091E090935A0591E089278093100519
:10129000FF91EF91BF91AF919F918F917F916F914E
:1012A0005F914F913F912F910F900FBE0F901F9024
:1012B000189510926B0510926A0588EE93E0A0E0F5
:1012C000B0E080936C0590936D05A0936E05B0938C
:1012D0006F0586E394E0909369058093680585EC3B
:1012E00090E0909375058093740584EC90E0909362
:1012F00077058093760580EC90E090937905809354
:10130000780581EC90E090937B0580937A0582ECE0
:1013100090E090937D0580937C0586EC90E090931F
:101320007F0580937E0510928105109282051092B0
:1013300083051092840587E090E090937F06809368
:101340007E0688E090E0909381068093800680E896
:1013500096E9A8E9B0E08093820690938306A09373
:101360008406B093850680E28093870681E08093AF
:10137000880685E080938F061092910685E090E0C4
:10138000A0E0B0E08093970690939806A09399060A
:10139000B0939A0610928A06A7E0B6E0E5E0F6E080
:1013A0001C9216961C921E921597179686E0AE37E1
:1013B000B807B1F785E096E01092080610920B0688
:1013C00010920A0628E020930906109207069093CF
:1013D0000D0680930C0631E030930F0648E050E094
:1013E00050931206409311062093100610920E0699
:1013F000909314068093130632E03093160640E172
:1014000050E0509319064093180620931706109247
:10141000150690931B0680931A0633E030931D0641
:1014200048E150E05093200640931F0620931E068B
:1014300010921C06909322068093210634E030938C
:10144000240640E250E0509327064093260620935E
:10145000250610922306909329068093280635E0EE
:1014600030932B0648E250E050932E0640932D0611
:1014700020932C0610922A069093300680932F0614
:1014800020E330E086E098E045E056E085A730AB09
:1014900027A796A714A652AB41AB285F3F4F8F5F9B
:1014A0003796813199F70895CF93DF93CDB7DEB7A3
:1014B000CE57D1090FB6F894DEBF0FBECDBF7894DA
:1014C00084B5826084BD84B5816084BD85B5826049
:1014D00085BD85B5816085BD80916E0081608093FA
:1014E0006E00109281008091810082608093810063
:1014F0008091810081608093810080918000816073
:10150000809380008091B10084608093B1008091CD
:10151000B00081608093B00080917A0084608093F5
:101520007A0080917A00826080937A0080917A00BC
:10153000816080937A0080917A00806880937A003D
:101540001092C10060E082E00E941F02E0917805E5
:10155000F091790582E08083E0917405F091750542
:101560001082E0917605F091770580E180831092FA
:101570008005E0917C05F0917D0586E08083E09117
:101580007A05F0917B05808180618083E0917A0506
:10159000F0917B05808188608083E0917A05F091ED
:1015A0007B05808180688083E0917A05F0917B05DE
:1015B00080818F7D80830E94A601019709F0ECC095
:1015C00087E494E00E94A90456E2C52E57E0D52E88
:1015D00080E00E94AD025C0181E00E94AD027C01CE
:1015E00083E00E94AD028C0182E00E94AD02209156
:1015F000140130911501A216B30620F4B092150122
:10160000A092140120911601309117012A153B0573
:1016100020F4B0921701A092160120911801309188
:101620001901E216F30620F4F0921901E092180174
:1016300020911A0130911B012E153F0520F4F092E4
:101640001B01E0921A0120911C0130911D0102172B
:10165000130720F410931D0100931C0120911E011B
:1016600030911F012017310720F410931F010093C0
:101670001E0120912001309121018217930720F44F
:101680009093210180932001209122013091230128
:101690002817390720F490932301809322010E9498
:1016A000A6018C01892B09F06CC081E0809337057D
:1016B000D0922501C092240144E1E42E41E0F42EB1
:1016C000D701BD907D01C8010E947F1BB81621F093
:1016D0006B2DC8010E94871B0F5F1F4F0231110540
:1016E00079F781E694E00E94B7048091140190910B
:1016F00015010E94B9048BE694E00E94B704809122
:101700001601909117010E94BF0486E794E00E94A1
:10171000B70480911801909119010E94B90481E8E1
:1017200094E00E94B70480911A0190911B010E94DD
:10173000BF048DE894E00E94B70480911C01909151
:101740001D010E94B90486E994E00E94B7048091CB
:101750001E0190911F010E94BF0480EA94E00E9444
:10176000B70480912001909121010E94B90489EA77
:1017700094E00E94B70480912201909123010E947D
:10178000BF0464E170E080E090E00E94E302809199
:101790003705882309F41CCF34E1E32E31E0F32E22
:1017A00010E000E0C8010E947F1BF70181937F01D8
:1017B0000F5F1F4F02311105A9F78091240190910D
:1017C00025018632974029F083EB94E00E94A9041A
:1017D000FFCF70E060E08CE494E00E94491770E075
:1017E00060E086E00E94500270E060E085E00E94C8
:1017F00050026FEF70E086E00E94500201E712E0B5
:10180000B5E8EB2EB2E0FB2E85E5882E912CA12CBD
:10181000B12C90E2792E25E0622E80917E06909187
:101820007F0620918006309181068217930741F050
:1018300061E00E941F0261E0809180060E941F0209
:10184000DFB6F89480913605811125C0F8018491A6
:10185000F7019491E82FF0E0EE0FFF1FEE5DFD4FD2
:10186000A591B4918C91982321F461E08AE00E94C3
:10187000CA0161E08AE00E941F028CB580618CBDC4
:101880008CB580648CBD61E08DE00E941F0261E038
:101890008BE00E941F02809136058F5F8093360592
:1018A000DFBE80E00E940F0281E00E94F80165E047
:1018B00070E080E090E00E94E3026FE584E00E9427
:1018C0001A0586E00E94F504809293069092940691
:1018D000A0929506B0929606682F677D86E00E94DA
:1018E0001A0586E00E94F5048DE10E94F504D82EC9
:1018F0000E948A058DE10E94F50491E0D81290E0E3
:1019000090939106882341F0D81202C00E948A0564
:1019100060E08DE10E941A051092890660E08CE17A
:101920000E941A05109288066FE381E00E941A0552
:1019300063E082E00E941A057092870671E1D72E5B
:10194000609187068D2D0E941A05D394F7E1DF126E
:10195000F7CF63E083E00E941A0560928F066CE483
:1019600085E00E941A0560E787E00E941A0582EE72
:101970000E9407050E9414056CE080E00E941A0591
:1019800080E00E94F504809390060E942D058091CE
:1019900090068E30E1F06FEFC62E61E0D62EF60194
:1019A0006491662349F088E695E00E94C103FFEF49
:1019B000CF1ADF0A892B99F784E494E00E94580437
:1019C00068EE73E080E090E00E94E30226CF84E0BE
:1019D0000E94AD02BC01990F880B990B611571052E
:1019E0008105910511F00E9440170E94F11628E030
:1019F00030E040E050E00E94951B645F7E4F7093A2
:101A0000270160932601DB016C916D3708F06DE7CB
:101A100085E00E941A0586E00E94F504682F676041
:101A200086E00E941A0540918F0660E071E08AE02E
:101A30000E943C0540918F0660E071E080E10E94C9
:101A40003C05ECEDF0E0849140918F0666E071E09A
:101A50000E943C0582E00E94F504E7E3F2E0E49195
:101A600061E070E001C0660FEA95EAF7682B82E05A
:101A70000E941A0560E081E00E941A0580918906A3
:101A8000882351F08DE10E94F504682F6D6F8DE180
:101A90000E941A051092890686E00E94F504877D4F
:101AA0004BE950E060E070E0409393065093940659
:101AB0006093950670939606682F606286E00E9498
:101AC0001A0586E00E94F50488E08093870611E1FC
:101AD00060918706812F0E941A051F5F1731C1F799
:101AE00060E084E00E941A050E942D050E945C05BA
:101AF000609182067091830680918406909185069C
:101B000020E432E44FE050E00E94FE1B1F922F932E
:101B10008AEE91E09F938F930E9494178FEF0E941B
:101B2000070540918606842F90E0242F21701F9294
:101B30002F939C0135952795277033273F932F933B
:101B400044FB992790F91F929F9345FB992790F9A1
:101B50001F929F9346FB882780F91F928F931F92B5
:101B60004F9381EE90E09F938F930E94941742E0F1
:101B70006AE08DED91E00E94CE0544E06CE080EDDE
:101B800091E00E94960541E060E187EC91E00E94BF
:101B9000CE0546E061E18CEB91E00E94960541E0C4
:101BA00061E085EB91E00E94960541E062E08BEAFE
:101BB00091E00E94960541E065E084EA91E00E9490
:101BC000960541E066E08BE991E00E94960541E0D0
:101BD00060E083E991E00E94960542E06CE185E8CF
:101BE00091E00E94960586E00E94F50488720FB687
:101BF000F894DEBF0FBECDBFE2E0F0E0803239F0F6
:101C000021E090E0883009F020E0E22FF92FEE0F7C
:101C1000FF1FE158FE4F859194919F938F9380E72A
:101C200091E09F938F930E949417E0919106F0E0CA
:101C3000EE0FFF1FE459FE4F859194919F938F9370
:101C40008EE591E09F938F930E94941781E00E940C
:101C5000F504182F80E00E94F504809390060FB6DB
:101C6000F894DEBF0FBECDBF83FD04C0F0E0E0E01E
:101C7000112331F0E2E0F0E082FD02C0E1E0F0E0AB
:101C8000EE0FFF1FE85AFE4F859194919F938F931B
:101C900088E491E09F938F930E94941786E00E94BE
:101CA000F504E82FF0E0F595E795E370F0E0EE0F2E
:101CB000FF1FE05CFE4F859194919F938F9382E389
:101CC00091E09F938F930E94941788E00E94F504FF
:101CD0008F701F928F9386E291E09F938F930E9463
:101CE0009417F8941092B0001092B1001092B200C4
:101CF0008BE98093B3008091B00082608093B00044
:101D00008091B10087608093B10080917000826003
:101D10008093700078940E9415038B019C0160935E
:101D20003E0510933F058093400530934105109286
:101D300042051092430510924405109245050FB6D6
:101D4000F894DEBF0FBECDBF22242A94312C80919F
:101D50009206882321F083EC94E00E94A9048091EC
:101D60005B0590915C05A0915D05B0915E050196C3
:101D7000A11DB11D80935B0590935C05A0935D054B
:101D8000B0935E0580915A05882309F4C0C1109272
:101D90005A058091260190912701A1E083319A078D
:101DA00009F0F9C08CE091E090932701809326011F
:101DB000E0912601F091270160816D3708F06DE711
:101DC00085E00E941A0580E880935605E0901A018C
:101DD000F0901B01009118011091190181E00E94FF
:101DE000AD024801012E000CAA08BB089801081793
:101DF00019070CF49C01E216F3060CF49701032E6C
:101E0000000C440B550B281939094A095B09A1E05C
:101E1000BFEF0E94C21B9701FF0C440B550B281902
:101E200039094A095B090E94951B21503F4F4F4FCA
:101E30005F4F20935705E0901E01F0901F01009125
:101E40001C0110911D0183E00E94AD024801012E8A
:101E5000000CAA08BB089801081719070CF49C018C
:101E6000E216F3060CF49701032E000C440B550BFD
:101E7000281939094A095B09A1E0BFEF0E94C21B7A
:101E80009701FF0C440B550B281939094A095B09C6
:101E90000E94951B21503F4F4F4F5F4F2093580595
:101EA000109259058091560590915705A0915805BB
:101EB000B091590580934E0590934F05A09350051E
:101EC000B0935105E1E0F0E0EC0FFD1FF093060642
:101ED000E093050687E096E00E940D088EE096E00C
:101EE0000E940D0880913D05882309F456C020E02A
:101EF00045E068E375E085E196E00E94F20620E0A7
:101F000044E066E575E087E096E00E94F20620E096
:101F100044E066E575E08EE096E00E94F20680916E
:101F200007068C5F80930E06B12C6B2D8EE096E039
:101F30000E947F06FC010081002309F474C0C12CBB
:101F4000D12C7601C39410E08091150690E0B0E0AA
:101F5000A0E0C816D906EA06FB0608F064C06C2D9E
:101F600085E196E00E947F06DC018C91B80190E04B
:101F70000E943504A82E6B2D6C0D8EE096E00E9419
:101F80007F06FC0190819A259083BFEFCB1ADB0A74
:101F9000EB0AFB0AD9CF019607CF60E085E196E016
:101FA0000E947F06FC0191E090839093150682E0E9
:101FB00080931C0602E312E0A6E3CA2EA2E0DA2E0A
:101FC000FF24F39460E08CE196E00E947F06DC0140
:101FD000FC9261E08CE196E00E947F06F80121917D
:101FE0008F01DC012C9343E256E06CE176E085E161
:101FF00096E00E94640763E276E085E196E00E9445
:102000002507C016D106F1F685E196E00E946C0620
:102010004091150650E0BC0188E395E00E94E81E5F
:10202000F0923D056CCFB394E4E0BE127ECF8EE01B
:1020300096E00E946C06FC01349694E0A2E5B5E0BF
:1020400001900D929A95E1F780E00E940F02809135
:102050009306909194068230910538F0880F991F6D
:10206000880F991F05970197F1F7809189068111D3
:102070000E941405609190066E7F6093900680E048
:102080000E941A0582E00E94F504E6E3F2E09491D2
:1020900061E070E001C0660F9A95EAF7682B82E074
:1020A0000E941A050E9414050E9415036B017C0111
:1020B0008FEF0E9407058091860680FFFFC084FD98
:1020C0000EC00E9415036C197D098E099F096036A8
:1020D00071058105910560F381E0809392060E946D
:1020E00015036B017C0187E10E94F50484FD22C188
:1020F0008091860684FF0EC160E187E00E941A0588
:1021000080E00E940F020E9414050E945C058FEF80
:102110000E9407058091860690E0959587958770C7
:10212000863008F40BC10E9415039B01AC0160E0EE
:1021300070E080E090E0A0903E05B0903F05C09038
:102140004005D0904105E0904205F0904305009194
:102150004405109145050E94B41E283E33404105B8
:102160005105610571058105910509F008F499C0D3
:102170000E9415038B019C0160933E0510933F055F
:10218000809340053093410510924205109243051B
:1021900010924405109245058EEC94E00E94B7041D
:1021A00060914605709147058091480590914905D9
:1021B0004AE00E94650484E494E00E9458048EED95
:1021C00094E00E94B704C0904A05D0904B05E0907F
:1021D0004C05F0904D05A7019601C701B6010E947C
:1021E000F41D882309F40DC585EE94E00E9458047F
:1021F00084E494E00E94580481EF94E00E94B704C4
:1022000060915B0570915C0580915D0590915E0524
:102210004AE00E94650484E494E00E945804A0917E
:102220004605B0914705A333B10514F0A2E3B0E031
:10223000B7FF02C0B0E0A0E02FEF30E00E940D1E1B
:1022400022E330E040E050E00E94951BB90186E0B7
:102250000E9450022CEC3CEC4CE251E460914A05A7
:1022600070914B0580914C0590914D050E94821D07
:102270006FEF70E0181614F070E060E085E00E94E7
:102280005002109246051092470510924805109290
:10229000490510925B0510925C0510925D05109245
:1022A0005E0580E090E0892B09F451CD0E948B03FC
:1022B000882309F44CCD0E94000049CD8091880606
:1022C00010E008E0811107C010918706012F193036
:1022D00008F008E0101B0E94CD0480EA0E942E0442
:1022E000809386067EE4E72E75E0F72E015030F0ED
:1022F000D7018D917D010E942E04F8CF115020F05E
:1023000080E00E942E04FACF0E940C0281E00E941D
:102310000F02E5CE0E9415036C197D098E099F09F5
:10232000603671058105910508F4DDCE81E080936A
:102330009206EBCE80E00E940F02E7CE80918806E5
:1023400010E008E0811107C010918706012F1930B5
:1023500008F008E0101B0E94CD0481E60E942E04C4
:10236000809386065EE4E52E55E0F52E015038F0A8
:102370008FEF0E942E04F70181937F01F7CF115058
:1023800020F08FEF0E942E04FACF0E940C0260E42E
:1023900087E00E941A0521E030E02C0F3D1F3093AA
:1023A00006062093050620E044E06EE475E087E031
:1023B00096E00E94F20624E044E062E575E087E0E2
:1023C00096E00E94F20667E076E08EE096E00E94DA
:1023D000250710925B0635E030933F0660E08FE3FF
:1023E00096E00E947F06DC011C92E2E3F2E0EF96A9
:1023F000FFAFEEAFEF977F0111E0D7016D917D0147
:1024000070E087E096E00E948D06082F612F8FE331
:1024100096E00E947F06FC0100831F5F153069F77C
:1024200000913F0610E0011709F4C3C3612F8FE349
:1024300096E00E947F06DC018C9181116FC41F5FC2
:10244000F2CF86E496E00E940D088FE396E00E94AA
:102450006C0640913F064150BC016F5F7F4F20E00A
:1024600086E496E00E94F206712CF0905B067F14E1
:1024700008F044C0672D8CE196E00E947F06DC01E5
:102480002C91AA24AA94B12CC12CD12CE12CF12C92
:1024900000E010E030E040E050E060E070E080E01C
:1024A00090E00E94141EF901EE5CFD4FE080F12CDB
:1024B000809146068150990B212F012E000C330B81
:1024C00028173907CCF4612F86E496E00E947F0636
:1024D0006C01FC018081B70190E00E943504082F57
:1024E0001F5F612F86E496E00E947F06DC018C91DD
:1024F0008027F6018083DCCF7394B7CF0F2D10E0D7
:10250000F1E0F0931C06F093230660E08CE196E086
:102510000E947F06E1E0DC01EC9360E083E296E05C
:102520000E947F06E1E0DC01EC93809146064CEFCF
:10253000E42EE80E853008F4E12C612C34E0C32E43
:10254000D12CC01AD10A10911C066C141D0408F07D
:102550006CC0562C5E0C652D86E496E00E947F06CA
:10256000DC010C9199249A94910E7724739471163E
:10257000C8F4492C4718652D671986E496E00E9437
:102580007F065C01642D8CE196E00E947F06F501D8
:10259000608170E0DC018C9190E00E943504082796
:1025A0007394E5CF60E083E296E00E943E0700234B
:1025B000D1F110E09091230680911C068917F0F468
:1025C000A80161E376E083E296E00E94B606F80196
:1025D000EE5CFE4F8081F101E81BF109EE5CFD4FDE
:1025E000408150E063E276E08CE196E00E94B6061E
:1025F00061E376E08CE196E00E942507A80161E3A3
:1026000076E083E296E00E94B60648E356E061E396
:1026100076E08CE196E00E94B60768E376E08CE114
:1026200096E00E94250763948ECF412C512C3201F5
:10263000112379F0642D8CE196E00E947F06FC0165
:102640008081811106C0FFEF4F1A5F0A6F0A7F0A6F
:10265000EFCF4F2D50E070E060E0DB01CA018095C4
:102660009095A095B095C12ED12CF12CE12CC418D9
:10267000D508E608F7088C0D9D1DAE1DBF1D880FFF
:10268000991FAA1FBB1F840F951FA61FB71F059771
:10269000A105B105C0F4012F10E0041915098CE162
:1026A00096E00E946C067C01E40CF51C84E596E043
:1026B0000E946C06A801B7010E94E81E80911C06CA
:1026C0008419809354060091540600931C0601500F
:1026D000102F17FD12C0612F84E596E00E947F063F
:1026E0007C01602F611B8CE196E00E947F06D70180
:1026F0002C91FC0120831150ECCF10911C0611503D
:102700001092620607E0EF96AEADBFADEF976D9108
:10271000EF96BFAFAEAFEF9770E08CE196E00E940E
:102720008D06811105C0602F82E696E00E943E076B
:10273000015048F7809162061813E9CC112309F47F
:10274000E6CC10E080916206181768F4612F82E6EB
:1027500096E00E947F06FC0160818BE596E00E9476
:102760003E071F5FEFCF80915B068093690610E004
:1027700080915B061817A8F400910706612F8BE57E
:1027800096E00E947F067C01612F89E696E00E9418
:102790007F060150D7012C91021BFC0100831F5FB3
:1027A000E7CFF1E0F0934D0660E08DE496E00E9403
:1027B0007F06E1E0DC01EC93E0931C0682E080936D
:1027C0002306512C80916906581608F04DC060E030
:1027D0008CE196E00E947F06E1E0DC01EC93652D40
:1027E00089E696E00E947F068C0160E083E296E035
:1027F0000E947F063C01D8012C91AA24AA94B12CF6
:10280000C12CD12CE12CF12C00E010E030E040E0B4
:1028100050E060E070E080E090E00E94141EF9015A
:10282000EE5CFD4F8081F301808361E083E296E0FE
:102830000E947F06DC011C9241E356E063E276E0F1
:102840008CE196E00E94B60748E356E061E376E04B
:102850008DE496E00E94640768E376E08DE496E0FC
:102860000E9425075394AECF00913F060093310696
:102870000150102F17FD12C0612F8FE396E00E94C8
:102880007F067C01602F611B81E396E00E947F063A
:10289000F7012081DC012C931150ECCF10914D06F3
:1028A0004CE156E06DE476E081E396E00E94640737
:1028B0001F5F1093230683E296E00E940D0860E0FC
:1028C00083E296E00E947F0621E0FC0120838CE1F8
:1028D00096E00E946C068C0188E396E00E946C06EC
:1028E0000817190731F040911C0650E0B8010E940A
:1028F000E81E80911C0680933806F12CE12C009193
:102900001C0610E0809123068150990B081B190BBF
:10291000E016F10674F50E2D6E2D88E396E00E9408
:102920007F06DC01CC90CC2001F111E0D12C80910C
:1029300023061817D0F4612F83E296E00E947F06E9
:10294000FC018081882379F0B60190E00E94350473
:10295000B82E602F610F88E396E00E947F06FC018D
:1029600090819B2590831F5FE2CFFFEFEF1AFF0A54
:10297000C6CFE0903806F12CE01AF10A88E396E021
:102980000E946C06BC01600F711FA7010E94F11E1E
:1029900080913806801B80933806809370061FEF65
:1029A000180F012F07FD12C0602F88E396E00E94E8
:1029B0007F067C01612F601B80E796E00E947F0606
:1029C000D7012C91FC0120830150ECCF10921C0602
:1029D000712C809169067816C8F5672D89E696E016
:1029E0000E947F06DC018C91A101481B5109519581
:1029F00041955109952F990F990BAA24AA94B12CAE
:102A0000C12CD12CE12CF12C00E010E09A01492FCF
:102A1000592F692F792F892F0E94141E4901A0E098
:102A20000E94BD1E49F021503F4F4F4F5F4F6F4FE7
:102A30007F4F8F4F9F4F4901F401EE5CFD4F608146
:102A40008CE196E00E943E077394C3CF8AE296E041
:102A50000E940D088091070680932A06412C8091E0
:102A60001C06481608F09DC0642D8CE196E00E947B
:102A70007F06DC01EC91F0E0EE5CFE4F8081F1011D
:102A8000E81BF109EE5CFD4FE0801092230610E098
:102A9000F12C80911C061817B0F00091230610E06D
:102AA00055245394011721F1612F83E296E00E948F
:102AB0007F06DC016C9170E0852D90E00E9435046A
:102AC000582E1F5FEFCF411689F0612F8CE196E001
:102AD0000E947F06FC01608170E0C7010E943504FE
:102AE00061E0682783E296E00E943E071F5FD1CF36
:102AF000B70188E396E00E948D06682E712C642D44
:102B00008CE196E00E947F06DC01EC91F0E0EE5C47
:102B1000FE4F2081AA24AA94B12CC12CD12CE12CE7
:102B2000F12C00E010E030E040E050E060E070E0C8
:102B300080E090E00E94141EF901EE5CFD4F808160
:102B4000B30190E00E943504182F642D8BE596E0C8
:102B50000E947F06FC0160818AE296E00E947F0667
:102B60009C01511002C00E94E31E1123B1F0E12F1D
:102B7000F0E0EE5CFE4F808190E081509F4FE52DAC
:102B8000F0E0EE5CFE4F4081841B9109B1010E9490
:102B9000F91DFC01EE5CFD4F1081D9011C9343949B
:102BA0005ECF4EE056E06AE276E087E096E00E9473
:102BB000B60784E080930E068EE096E00E946C06D5
:102BC000FC0180819181A281B38180934A05909319
:102BD0004B05A0934C05B0934D058091460590910F
:102BE0004705A0914805B09149050196A11DB11D69
:102BF0008093460590934705A0934805B0934905F7
:102C000086CA46015701E894B7F82FEF3FEF4FE728
:102C10005FE7C501B4010E94F41D81110DC02FEFC3
:102C20003FEF4FE75FE7C501B4010E949C1C1816F7
:102C30001CF489EE94E0DACA2FEF3FEF4FE75FE430
:102C4000C701B6010E94821D18161CF48DEE94E097
:102C5000CDCA2FEF3FEF4FE75FECC701B6010E94EF
:102C60009C1C87FDF3CF20E030E0A901C701B6012D
:102C70000E949C1C87FF09C06DE288E695E00E94D7
:102C8000C103F7FAF094F7F8F0942AE037ED43EA3D
:102C90005BE3C701B6010E94301C4B015C010E943E
:102CA000A11C6B017C010E94D01C9B01AC01C501E1
:102CB000B4010E942F1C4B015C014AE0C701B60120
:102CC0000E9465046EE288E695E00E94C10320E060
:102CD00030E040E251E4C501B4010E94871D4B0180
:102CE0005C010E94A11C6B01CB010E94B904B601DA
:102CF00090E080E00E94D01C9B01AC01C501B401B2
:102D00000E942F1C20E030E040E251E40E94871D29
:102D10000E94A11CCB010E94B9046ACA10921C0631
:102D200010E080915B06181708F08BCB612F8BE5C4
:102D300096E00E947F06FC01808167E0681B8CE1C1
:102D400096E00E943E071F5FECCF8F929F92AF925A
:102D5000BF92CF92DF92EF92FF92CF93DF93EC017D
:102D6000688179818A819B81611571058105910551
:102D700021F464E279ED8BE597E02DE133EF41E05A
:102D800050E00E94951B49015A019B01AC01A7EA42
:102D9000B1E40E94B41B6B017C01ACEEB4EFA50161
:102DA00094010E94C21BC60ED71EE81EF91EF7FE34
:102DB00006C081E0C81AD108E10880E8F80AC88294
:102DC000D982EA82FB82C701B6019F77DF91CF915A
:102DD000FF90EF90DF90CF90BF90AF909F908F903B
:102DE00008958F929F92AF92BF92CF92DF92EF920F
:102DF000FF92609128017091290180912A019091A0
:102E00002B01611571058105910521F464E279EDCD
:102E10008BE597E02DE133EF41E050E00E94951BF8
:102E200049015A019B01AC01A7EAB1E40E94B41B1D
:102E30006B017C01ACEEB4EFA50194010E94C21BB2
:102E4000C60ED71EE81EF91EF7FE06C081E0C81A9E
:102E5000D108E10880E8F80AC0922801D09229013F
:102E6000E0922A01F0922B01C701B6019F77FF90F3
:102E7000EF90DF90CF90BF90AF909F908F9008958C
:102E8000609328017093290180932A0190932B016C
:102E900008950F931F93CF93DF93009759F4611513
:102EA000710541F4F0E0E0E0CF01DF91CF911F9197
:102EB0000F9108958B01EC016EE070E081E090E0ED
:102EC0000E949319FC01892B69F380E88383011523
:102ED000110571F01387028781E8838380919B0637
:102EE00090919C06892B21F4F0939C06E0939B061D
:102EF0002097D1F2D187C0878381826083838091BC
:102F00009D0690919E06892B79F6F0939E06E0939C
:102F10009D0680919F069091A006892B29F6F0933B
:102F2000A006E0939F06C0CFB0E0A0E0EAE9F7E199
:102F30000C94D51BAE01495F5F4FDA016D917D9115
:102F4000AD010BE916E0F80182819381DC01139653
:102F50002C911397286013962C930E94B917D801CF
:102F60001296ED91FC912381277F2383E4E00C945A
:102F7000F11BABE0B0E0EFEBF7E10C94C71B7C0179
:102F80003B018A01FC0117821682838181FFC8C13F
:102F9000CE0101965C01F7019381F30193FD8591C8
:102FA00093FF81913F01882309F453C1853239F49D
:102FB00093FD859193FF81913F01853229F4B701FB
:102FC00090E00E94F11AE7CF912C212C312CFFE1E7
:102FD000F31538F08B3211F190F4803209F183321D
:102FE00029F137FC3CC020ED280F2A3050F536FE81
:102FF00020C08AE0989E200D1124922E06C08D32AA
:1030000091F0803371F7689430F8F30193FD859166
:1030100093FF81913F018111DACF21C0689431F88B
:10302000689432F8F2CF689433F8EFCF689434F8AC
:10303000ECCFEAE02E9E200D1124222E689435F864
:10304000E4CF8E3229F436FC04C1689436F8DDCF23
:103050008C3619F4689437F8D8CF8836B1F2982FA7
:103060009F7D95549330E0F08336A1F18337C1F111
:10307000833509F063C02801F2E04F0E511CF801BE
:10308000C080D180692D70E036FC02C06FEF7FEF09
:10309000C6010E94D41A4C01689437F882010AC014
:1030A0000C5F1F4FFFE3F98388248394912C650103
:1030B000E89437F833FE2DC0522C8114910471F539
:1030C000552009F468CFB70180E290E00E94F11A20
:1030D0005A94F6CFF801808189830E5F1F4FE4CFA9
:1030E0002801F2E04F0E511CF801C080D180692DFB
:1030F00070E036FC02C06FEF7FEFC6010E94E61A57
:103100004C018201D5CFB70180E290E00E94F11A14
:103110002A942814190409F0B0F7CECFF60137FC31
:10312000859137FE81916F01B70190E00E94F11AFD
:1031300051105A94F1E08F1A9108BFCF843619F0DC
:10314000893609F077C0F80137FE6BC06081718164
:10315000828193810C5F1F4FF32DFF763F2E97FFE7
:1031600009C090958095709561957F4F8F4F9F4FC7
:10317000689437F82AE030E0A5010E94211BC82E90
:10318000CA188C2C432C36FE0CC0E89440F8C914A5
:1031900040F434FE05C032FC03C0F32DFE7E4F2EFA
:1031A000892C44FE95C0FE01EC0DF11D8081803319
:1031B00009F087C0242D297E422E842D8870582E38
:1031C00043FC95C040FE8FC09C2C821418F42C0C3C
:1031D000922C981844FE91C0B70180E390E00E94C1
:1031E000F11A42FE09C088E790E041FE02C088E57E
:1031F00090E0B7010E94F11AC91408F48AC0CA9479
:10320000D12C9FEFC91AD90ACA0CDB1CF601829196
:103210006F01B70190E00E94F11AAC14BD04B1F740
:103220004FCF60817181072E000C880B990B0E5FC8
:103230001F4F92CFD32CE894D4F82AE030E08537A2
:1032400039F1232D297FD22E8F3601F148F48835AC
:10325000A9F0F701868197812B96E2E10C94E31B9C
:10326000803749F08837A9F7D4FE02C06894D2F8B5
:1032700020E130E00DC06894D4F8F6CF34FE03C0EE
:10328000822F8660D82E20E132E002C028E030E0B4
:10329000F801D7FE0FC060817181828193810C5F3C
:1032A0001F4FA5010E94211BC82ECA183D2CE8946F
:1032B00037F867CF6081718190E080E00E5F1F4F2B
:1032C000F0CF42FC02C0839478CF8394839475CF6F
:1032D000842D867809F471CFF6CFB70180E290E0B3
:1032E0000E94F11A83948214C0F3512C73CF522C94
:1032F0005818821408F46ECFF8CF842D867809F41C
:103300007BCF8BE241FE80E247FC8DE2B70190E08B
:1033100071CFB70180E390E00E94F11A9A946CCFCC
:103320008FEF9FEF99CF0F931F93CF93DF93869FDC
:103330008001879F100D969F100D1124C8010E94D7
:10334000AF19EC01009729F0A80170E060E00E943D
:10335000DF1ACE01DF91CF911F910F9108950F9346
:103360001F93CF93DF938230910510F482E090E0B9
:10337000E091A306F091A40630E020E0B0E0A0E0E8
:10338000309799F42115310509F44AC0281B390BEF
:1033900024303105D8F58A819B816115710589F149
:1033A000FB0193838283FE0111C040815181028120
:1033B000138148175907E0F04817590799F41097F7
:1033C00061F012960C93129713961C933296CF01CC
:1033D000DF91CF911F910F9108950093A306109351
:1033E000A406F4CF2115310551F04217530738F0E8
:1033F000A901DB019A01BD01DF01F801C1CFEF0195
:10340000F9CF9093A4068093A306CDCFFE01E20FDF
:10341000F31F819391932250310939832883D7CFA9
:103420002091A1063091A206232B41F420912E0178
:1034300030912F013093A2062093A10620912C01F8
:1034400030912D012115310541F42DB73EB7409142
:10345000300150913101241B350BE091A106F09110
:10346000A206E217F307A0F42E1B3F0B281739071B
:1034700078F0AC014E5F5F4F2417350748F04E0FD0
:103480005F1F5093A2064093A106819391939FCF13
:10349000F0E0E0E09CCFCF93DF930097E9F0FC01F0
:1034A000329713821282A091A306B091A406ED0177
:1034B00030E020E01097A1F420813181820F931F2A
:1034C0002091A1063091A2062817390709F061C0A2
:1034D000F093A206E093A106DF91CF910895EA014F
:1034E000CE17DF07E8F54A815B819E014115510542
:1034F000B1F7E901FB83EA8349915991C40FD51FC4
:10350000EC17FD0761F4808191810296840F951F6D
:10351000E90199838883828193819B838A83F0E088
:10352000E0E012968D919C9113970097B9F52D913B
:103530003C911197CD010296820F931F2091A10615
:103540003091A2062817390739F6309751F51092B5
:10355000A4061092A306B093A206A093A106BCCF26
:10356000D383C28340815181840F951FC817D90727
:1035700061F44E5F5F4F88819981480F591F5183D5
:1035800040838A819B81938382832115310509F0D1
:10359000B0CFF093A406E093A3069ECFFD01DC011B
:1035A000C0CF13821282D7CFFC01059061507040CA
:1035B0000110D8F7809590958E0F9F1F0895DC011C
:1035C00001C06D9341505040E0F70895FC016150F7
:1035D000704001900110D8F7809590958E0F9F1F35
:1035E00008950F931F93CF93DF93182F092FEB01AB
:1035F0008B8181FD09C01FEF0FEF812F902FDF918D
:10360000CF911F910F91089582FF14C02E813F81A9
:103610008C819D81281739073CF4E881F981CF011D
:1036200001969983888310838E819F8101969F8361
:103630008E83E3CFE885F985812F0995892BA1F346
:10364000DACFFA01AA27283051F1203181F1E8942C
:103650006F936E7F6E5F7F4F8F4F9F4FAF4FB1E085
:103660003ED0B4E03CD0670F781F891F9A1FA11D80
:10367000680F791F8A1F911DA11D6A0F711D811D81
:10368000911DA11D20D009F468943F912AE0269F46
:1036900011243019305D3193DEF6CF010895462FA5
:1036A0004770405D4193B3E00FD0C9F7F6CF462F86
:1036B0004F70405D4A3318F0495D31FD40524193EF
:1036C00002D0A9F7EACFB4E0A695979587957795AC
:1036D0006795BA95C9F700976105710508959B0133
:1036E000AC010A2E06945795479537952795BA95BC
:1036F000C9F7620F731F841F951FA01D0895F999C4
:10370000FECF92BD81BDF89A992780B50895262FE6
:10371000F999FECF1FBA92BD81BD20BD0FB6F894B6
:10372000FA9AF99A0FBE01960895052E97FB1EF49A
:1037300000940E94AC1B57FD07D00E94FE1B07FCA3
:1037400003D04EF40C94AC1B5095409530952195C8
:103750003F4F4F4F5F4F08959095809570956195BD
:103760007F4F8F4F9F4F08950E94201CA59F900D63
:10377000B49F900DA49F800D911D11240895B7FF53
:103780000C94B41B0E94B41B821B930B08952F92C0
:103790003F924F925F926F927F928F929F92AF92E1
:1037A000BF92CF92DF92EF92FF920F931F93CF932E
:1037B000DF93CDB7DEB7CA1BDB0B0FB6F894DEBFC5
:1037C0000FBECDBF09942A88398848885F846E84EB
:1037D0007D848C849B84AA84B984C884DF80EE8035
:1037E000FD800C811B81AA81B981CE0FD11D0FB63E
:1037F000F894DEBF0FBECDBFED010895A1E21A2EF1
:10380000AA1BBB1BFD010DC0AA1FBB1FEE1FFF1F84
:10381000A217B307E407F50720F0A21BB30BE40BD4
:10382000F50B661F771F881F991F1A9469F760951B
:103830007095809590959B01AC01BD01CF010895D5
:10384000A29FB001B39FC001A39F700D811D1124E1
:10385000911DB29F700D811D1124911D0895505826
:10386000BB27AA270E94471C0C94481D0E943A1DA2
:1038700038F00E94411D20F039F49F3F19F426F4DE
:103880000C94371D0EF4E095E7FB0C94311DE92FE5
:103890000E94591D58F3BA176207730784079507EA
:1038A00020F079F4A6F50C947B1D0EF4E0950B2E18
:1038B000BA2FA02D0B01B90190010C01CA01A00182
:1038C0001124FF27591B99F0593F50F4503E68F1DD
:1038D0001A16F040A22F232F342F4427585FF3CF1E
:1038E000469537952795A795F0405395C9F77EF4EF
:1038F0001F16BA0B620B730B840BBAF09150A1F038
:10390000FF0FBB1F661F771F881FC2F70EC0BA0FBD
:10391000621F731F841F48F4879577956795B79545
:10392000F7959E3F08F0B0CF9395880F08F0992740
:10393000EE0F9795879508950E940D1D08F481E07C
:1039400008950E94611D88F09F5798F0B92F99271C
:10395000B751B0F0E1F0660F771F881F991F1AF07A
:10396000BA95C9F714C0B13091F00E947B1DB1E047
:1039700008950C947B1D672F782F8827B85F39F046
:10398000B93FCCF3869577956795B395D9F73EF413
:1039900090958095709561957F4F8F4F9F4F0895BB
:1039A000E89409C097FB3EF49095809570956195D9
:1039B0007F4F8F4F9F4F9923A9F0F92F96E9BB278F
:1039C0009395F695879577956795B795F111F8CF0B
:1039D000FAF4BB0F11F460FF1BC06F5F7F4F8F4F76
:1039E0009F4F16C0882311F096E911C0772321F06C
:1039F0009EE8872F762F05C0662371F096E8862F04
:103A000070E060E02AF09A95660F771F881FDAF75A
:103A1000880F9695879597F90895990F0008550F87
:103A2000AA0BE0E8FEEF16161706E807F907C0F044
:103A300012161306E407F50798F0621B730B840B4C
:103A4000950B39F40A2661F0232B242B252B21F426
:103A500008950A2609F4A140A6958FEF811D811DC6
:103A6000089597F99F6780E870E060E008959FEF00
:103A700080EC089500240A94161617061806090605
:103A8000089500240A9412161306140605060895D4
:103A9000092E0394000C11F4882352F0BB0F40F45C
:103AA000BF2B11F460FF04C06F5F7F4F8F4F9F4F9C
:103AB000089557FD9058440F551F59F05F3F71F01E
:103AC0004795880F97FB991F61F09F3F79F0879585
:103AD0000895121613061406551FF2CF4695F1DF0E
:103AE00008C0161617061806991FF1CF869571059E
:103AF000610508940895E894BB2766277727CB01D2
:103B000097F908950E940D1D08F48FEF08950E9403
:103B10009A1D0C94481D0E943A1D38F00E94411DC8
:103B200020F0952311F00C94311D0C94371D1124B5
:103B30000C947C1D0E94591D70F3959FC1F3950F45
:103B400050E0551F629FF001729FBB27F00DB11D21
:103B5000639FAA27F00DB11DAA1F649F6627B00DB1
:103B6000A11D661F829F2227B00DA11D621F739F9A
:103B7000B00DA11D621F839FA00D611D221F749FA8
:103B80003327A00D611D231F849F600D211D822FEF
:103B9000762F6A2F11249F5750409AF0F1F0882316
:103BA0004AF0EE0FFF1FBB1F661F771F881F915043
:103BB0005040A9F79E3F510580F00C94311D0C94A4
:103BC0007C1D5F3FE4F3983ED4F386957795679527
:103BD000B795F795E7959F5FC1F7FE2B880F911D6D
:103BE0009695879597F908950E940D1D880B990B5E
:103BF000089597FB072E16F4009407D077FD09D09F
:103C00000E94C91E07FC05D03EF4909581959F4FF8
:103C10000895709561957F4F08950E94201CB7FF0D
:103C20000895821B930B0895689401C0E894F92FBE
:103C3000F12B12F00C94481EA0E0B0E0E2E2FEE1AD
:103C40000C94CD1B092E059422F40E94A41E11236E
:103C500092F4F0E80F26FFEFE094F09400951095B1
:103C6000B094C094D094A194BF0ACF0ADF0AEF0A9F
:103C7000FF0A0F0B1F0B0E94531E07FC0E94A41E7D
:103C8000CDB7DEB7ECE00C94E91B689401C0E89472
:103C90008F929F92CF93DF930E94531EDF91CF911B
:103CA0009F908F90089588249924F401E401B0E452
:103CB0009F93AA279A158B049C04ED05FE05CF055A
:103CC000D007A10798F4AD2FDC2FCF2FFE2FE92DC1
:103CD000982C892E982F872F762F652F542F432FBE
:103CE000322F2227B85031F7BF9127C01B2EBF912A
:103CF000BB27220F331F441F551F661F771F881FC6
:103D0000991F881C991CEE1FFF1FCC1FDD1FAA1FC7
:103D1000BB1F8A149B04EC05FD05CE05DF05A0073B
:103D2000B10748F08A189B08EC09FD09CE09DF09A4
:103D3000A00BB10B21601A94E1F62EF49401AF01AF
:103D4000BE01CD01000C0895609570958095909509
:103D500030954095509521953F4F4F4F5F4F6F4F96
:103D60007F4F8F4F9F4F08952A193B094C095D09DA
:103D70006E097F09800B910B08950024A7FD009424
:103D80002A1730054005500560057005800590052F
:103D90000895AA1BBB1B51E107C0AA1FBB1FA61792
:103DA000B70710F0A61BB70B881F991F5A95A9F7E4
:103DB00080959095BC01CD010895EE0FFF1F0590F1
:103DC000F491E02D099481E090E0F8940C94031FA5
:103DD000FB01DC0102C001900D9241505040D8F728
:103DE00008956817790768F4FB01DC01E40FF51FFB
:103DF000A40FB51F02C002900E9241505040D8F758
:0A3E000008950C94E81EF894FFCF1B
:103E0A007265637600007472616E0000717D6055A0
:103E1A0048635B4300020002000200020002000243
:103E2A000002000200000C01010000000000A506CB
:103E3A0080000000011902321AC603DF33EE1B6844
:103E4A00C74B0464E00E348DEF811CC169F8C808C1
:103E5A004C71058A652FE1240F2135938EDAF01211
:103E6A0082451DB5C27D6A27F9B9C99A09784DE418
:103E7A0072A606BF8B6266DD30FDE29825B310910B
:103E8A00228836D094CE8F96DBBDF1D2135C83386C
:103E9A0046401E42B6A3C3487E6E6B3A2854FA8542
:103EAA00BA3DCA5E9B9F0A15792B4ED4E5AC73F3D3
:103EBA00A7570770C0F78C80630D674ADEED31C5DE
:103ECA00FE18E3A5997726B8B47C114492D9232029
:103EDA00892E373FD15B95BCCFCD908797B2DCFC5A
:103EEA00BE61F256D3AB142A5D9E843C3953476DAA
:103EFA0041A21F2D43D8B77BA476C41749EC7F0C87
:103F0A006FF66CA13B52299D55AAFB6086B1BBCCCA
:103F1A003E5ACB595FB09CA9A0510BF516EB7A75A6
:103F2A002CD74FAED5E9E6E7ADE874D6F4EAA85047
:103F3A0058AF01020408102040801D3A74E8CD876A
:103F4A0013264C982D5AB475EAC98F03060C1830FB
:103F5A0060C09D274E9C254A94356AD4B577EEC138
:103F6A009F23468C050A142850A05DBA69D2B96FFE
:103F7A00DEA15FBE61C2992F5EBC65CA890F1E3C75
:103F8A0078F0FDE7D3BB6BD6B17FFEE1DFA35BB66A
:103F9A0071E2D9AF4386112244880D1A3468D0BD24
:103FAA0067CE811F3E7CF8EDC7933B76ECC597330D
:103FBA0066CC85172E5CB86DDAA94F9E214284150E
:103FCA002A54A84D9A2952A455AA49923972E4D57D
:103FDA00B773E6D1BF63C6913F7EFCE5D7B37BF6E4
:103FEA00F1FFE3DBAB4B963162C495376EDCA55724
:103FFA00AE4182193264C88D070E1C3870E0DDA705
:10400A0053A651A259B279F2F9EFC39B2B56AC458C
:10401A008A09122448903D7AF4F5F7F3FBEBCB8B2F
:10402A000B162C58B07DFAE9CF831B366CD8AD47F6
:10403A008E01020408102040801D3A74E8CD8713CF
:10404A00264C982D5AB475EAC98F03060C183060AD
:10405A00C09D274E9C254A94356AD4B577EEC19FF8
:10406A0023468C050A142850A05DBA69D2B96FDEBE
:10407A00A15FBE61C2992F5EBC65CA890F1E3C78DA
:10408A00F0FDE7D3BB6BD6B17FFEE1DFA35BB67170
:10409A00E2D9AF4386112244880D1A3468D0BD672D
:1040AA00CE811F3E7CF8EDC7933B76ECC59733660D
:1040BA00CC85172E5CB86DDAA94F9E214284152A49
:1040CA0054A84D9A2952A455AA49923972E4D5B7EF
:1040DA0073E6D1BF63C6913F7EFCE5D7B37BF6F1A9
:1040EA00FFE3DBAB4B963162C495376EDCA557AE66
:1040FA004182193264C88D070E1C3870E0DDA7535F
:10410A00A651A259B279F2F9EFC39B2B56AC458A54
:10411A0009122448903D7AF4F5F7F3FBEBCB8B0BAD
:10412A00162C58B07DFAE9CF831B366CD8AD478E72
:10413A00010200000000C10321034E030E047F03A5
:10414A005D0371030D0A00456E7465722063616C2C
:10415A006962726174696F6E206D6F64652E2E2EAE
:10416A0000726F6C6C206D696E3D0020726F6C6C12
:10417A00206D61783D007069746368206D696E3DD9
:10418A0000207069746368206D61783D00796177F9
:10419A00206D696E3D0020796177206D61783D0060
:1041AA00746872206D696E3D0020746872206D61BA
:1041BA00783D004E4F542043414C494252415445A8
:1041CA004421006877206661696C757265007265C2
:1041DA0063656976656420636F756E742000626139
:1041EA0074743A20006E616E00696E66006F7666BE
:1041FA00006C6F6F7020636F756E74200053636874
:10420A006564756C652074696D656F75742100004D
:00000001FF
