:100000000C944E010C9476010C9476010C947601BC
:100010000C9476010C9476010C9476010C94D40B1C
:100020000C9476010C9476010C9476010C94180BC8
:100030000C9476010C9476010C9476010C94760164
:100040000C94760A0C9476010C94E60A0C94C00A7F
:100050000C9476010C9476010C9476010C94760144
:100060000C9476010C9476013D2050415F4D41582F
:10007000003D2050415F48494748003D2050415FC6
:100080004C4F57003D2050415F4D494E003D2031BF
:10009000362062697473003D2038206269747300F1
:1000A0003D2044697361626C6564006E524632346F
:1000B0004C30312B006E524632344C3031003D20F2
:1000C000323530204B425053003D2032204D4250BB
:1000D00053003D2031204D425053000A0B0C0D0EB1
:1000E0000F53544154555309093D2030782530327F
:1000F000782052585F44523D25782054585F44532D
:100100003D2578204D41585F52543D257820525866
:100110005F505F4E4F3D25782054585F46554C4CFC
:100120003D25780D0A0041524309093D2025640D03
:100130000A00504120506F7765720925530D0A005F
:1001400084007B0071006800435243204C656E6759
:1001500074680925530D0A00A00097008D004D6FAB
:1001600064656C09093D2025530D0A00B500AB00FC
:100170004461746120526174650925530D0A00D2EF
:1001800000C900BE0044594E50442F4645415455C5
:10019000524500434F4E464947090052465F53457A
:1001A0005455500052465F43480900454E5F52582F
:1001B0004144445200454E5F4141090052585F504E
:1001C000575F50302D360054585F41444452090067
:1001D00052585F414444525F50322D350052585FAF
:1001E000414444525F50302D3100535049205370E8
:1001F0006565647A093D202564204D687A0A00729D
:100200006164696F206861726477617265206973E7
:10021000206E6F7420726573706F6E64696E6721F3
:100220002100000000080002010000030407000094
:1002300000000000000000000000250028002B0046
:1002400000000000240027002A0004040404040421
:100250000404020202020202030303030303010275
:100260000408102040800102040810200102040844
:1002700010200D0A002530327800203078002553F8
:10028000093D000D0A0020307825303278002553D2
:10029000093D00000102030405000F0C11241FBEDC
:1002A000CFEFD8E0DEBFCDBF14E0A0E0B1E0EAE3DD
:1002B000FBE302C005900D92A438B107D9F726E000
:1002C000A4E8B4E001C01D92AE32B207E1F711E03C
:1002D000CEE4D1E004C02197FE010E94751DCD340B
:1002E000D107C9F70E943E0D0C949B1D0C94000091
:1002F00090E0FC01E25AFD4F2491865B9D4FFC018A
:100300008491882399F090E0880F991FFC01E05CAC
:10031000FD4FA591B491FC01EA5CFD4F859194914C
:100320008FB7F894EC91E22BEC938FBF089590E097
:10033000FC01EE5DFD4F2491FC01E25AFD4F34912A
:10034000FC01E65BFD4FE491EE23C9F0222339F076
:10035000233001F1A8F4213019F1223029F1F0E025
:10036000EE0FFF1FEA5CFD4FA591B4918FB7F89493
:10037000EC91611126C030953E233C938FBF0895C8
:100380002730A9F02830C9F0243049F78091800047
:100390008F7D03C0809180008F7780938000DFCFB6
:1003A00084B58F7784BDDBCF84B58F7DFBCF809103
:1003B000B0008F778093B000D2CF8091B0008F7D56
:1003C000F9CF3E2BDACF682F809109060E94970162
:1003D00080912006909121068230910538F0880F97
:1003E000991F880F991F05970197F1F7089581E0EC
:1003F0000C94E3012091070630910806409109060C
:1004000050910A062417350721F0682F822F0C948B
:1004100097010895806480937C0080917A008064C5
:1004200080937A0080917A0086FDFCCF80917800DD
:100430009091790008953FB7F8948091C20490910B
:10044000C304A091C404B091C50426B5A89B05C0FF
:100450002F3F19F00196A11DB11D3FBFBA2FA92F43
:10046000982F8827BC01CD01620F711D811D911D40
:1004700042E0660F771F881F991F4A95D1F70895AC
:100480008F929F92AF92BF92CF92DF92EF92FF92A4
:100490004B015C010E941B026B017C010E941B024C
:1004A0006C197D098E099F09683E7340810591058D
:1004B000A8F321E0821A9108A108B10888EEC80EBD
:1004C00083E0D81EE11CF11C81149104A104B10445
:1004D00029F7FF90EF90DF90CF90BF90AF909F9063
:1004E0008F9008952FB7F8946091BE047091BF0467
:1004F0008091C0049091C1042FBF0895AF92BF9224
:10050000CF92DF92EF92FF920F931F93CF93DF93DF
:100510006C017B018B01040F151FEB015E01AE180E
:10052000BF08C017D10759F06991D601ED91FC9130
:100530000190F081E02DC6010995892B79F7C5015D
:10054000DF91CF911F910F91FF90EF90DF90CF90AF
:10055000BF90AF900895FC01538D448D252F30E05E
:10056000842F90E0821B930B541710F0CF960895C0
:1005700001970895FC01918D828D981761F0A28DED
:10058000AE0FBF2FB11D5D968C91928D9F5F9F73B3
:10059000928F90E008958FEF9FEF0895FC01918D69
:1005A000828D981731F0828DE80FF11D858D90E0D6
:1005B00008958FEF9FEF0895FC01918D228D892F73
:1005C00090E0805C9F4F821B91098F73992708955B
:1005D00086EC94E00E94DC0221E0892B09F420E003
:1005E000822F089580E090E0892B29F00E94E80294
:1005F00081110C9400000895FC01A48DA80FB92F5F
:10060000B11DA35ABF4F2C91848D90E001968F733A
:100610009927848FA689B7892C93A089B1898C9159
:10062000837080648C93938D848D981306C00288A8
:10063000F389E02D80818F7D80830895EF92FF9272
:100640000F931F93CF93DF93EC0181E0888F9B8DF5
:100650008C8D98131AC0E889F989808185FF15C0AF
:100660009FB7F894EE89FF896083E889F9898081D2
:100670008370806480839FBF81E090E0DF91CF91A1
:100680001F910F91FF90EF900895F62E0B8D10E0C3
:100690000F5F1F4F0F731127E02E8C8D8E110CC032
:1006A0000FB607FCFACFE889F989808185FFF5CF7D
:1006B000CE010E94FC02F1CFEB8DEC0FFD2FF11D5E
:1006C000E35AFF4FF0829FB7F8940B8FEA89FB89BA
:1006D00080818062CFCFCF93DF93EC01888D882318
:1006E000B9F0AA89BB89E889F9898C9185FD03C095
:1006F000808186FD0DC00FB607FCF7CF8C9185FF7A
:10070000F2CF808185FFEDCFCE010E94FC02E9CFC0
:10071000DF91CF9108958EBD00000DB407FEFDCF8F
:100720008EB50895DC01EC91EC3090F511968C912A
:10073000119728E830E0281B310987FD3395220FF7
:10074000331F220F331F6217730784F012968C91A8
:1007500028E532E0281B310987FD3395220F331F2E
:10076000220F331F621773070CF49B0122503109CB
:10077000220F331F4FB7F8948E2F90E0FC01EE0F3D
:10078000FF1FE80FF91FED59FA4F328321834FBF46
:1007900008951F93CF93DF93EC01162F88818C303F
:1007A00008F04DC0862F0E9478018881282F30E004
:1007B000F901EE0FFF1FE20FF31FED59FA4F1F7300
:1007C0006081607C612B608319821A822CE0622F29
:1007D0000E94851C829FB001112430E020E0AB0113
:1007E000420F531FFA01EE0FFF1FE40FF51FED59E3
:1007F000FA4F908196FD16C02F5F3F4F2C30310588
:1008000071F781110FC01092800082E08093810007
:100810001092850010928400B19A80916F008260DE
:1008200080936F00E8818E2F90E0FC01EE0FFF1F98
:10083000E80FF91FED59FA4F808180648083888129
:10084000DF91CF911F910895009799F0611571057F
:1008500081F0805E9E4FFC01808190E0605E7E4F63
:10086000FB012081805E9D4F820F911DFC018081E4
:10087000089580E00895CF93C82F682F86EC94E008
:100880000E941E038C2FCC0F990BCF910895FC0171
:1008900001900020E9F73197AF01481B590BBC01CB
:1008A00086EC94E00C947E028F929F92AF92BF925E
:1008B0000F931F93CF93DF93CDB7DEB7A1970FB6FA
:1008C000F894DEBF0FBECDBF19A2423008F44AE053
:1008D0008E010F5D1F4F842E912CB12CA12CA501F0
:1008E00094010E94231BE62FB901CA01EA30F4F4F7
:1008F000E05DD801EE938D01232B242B252B79F776
:1009000090E080E0109719F0CD010E944704A19675
:100910000FB6F894DEBF0FBECDBFDF91CF911F9110
:100920000F91BF90AF909F908F900895E95CE1CFB9
:100930000F931F9300910B0610910C0620910D064A
:1009400030910E0640E052E16AE770E080E0041763
:1009500015072607370740F476956795579547950D
:100960008F5F8630A1F787E0982F906A96958095E3
:1009700081709CBD8DBD80E01F910F910C94E301AF
:10098000CF93C82F0E9498048C2F80620E948B0303
:1009900080930F06CF910C94F701CF93C82F0E943C
:1009A00098048C2F0E948B0380930F068FEF0E9478
:1009B0008B03C82F0E94F7018C2FCF910895FF92CF
:1009C0000F931F93CF93DF93C82FF62E072F142F6B
:1009D0000E9498048C2F80620E948B0380930F06E4
:1009E000CF2DD02F115020F089910E948B03FACF88
:1009F000DF91CF911F910F91FF900C94F7010E940E
:100A0000980480E50E948B0380930F0683E70E9481
:100A10008B030C94F701CF93DF93D82FC62F0E943E
:100A200098048D2F80620E948B0380930F068C2F79
:100A30000E948B03DF91CF910C94F701609119060E
:100A400061FD0AC062606093190680E00E940B0598
:100A50008BE19EE40197F1F708950E941E056091D5
:100A6000190661606093190680E00E940B0560E73B
:100A700087E00E940B0581E00E94FA018091130635
:100A8000882339F04091180663E176E08AE00C94FF
:100A9000DF0482E00E94CD04E3E9F2E0E49121E08A
:100AA00030E001C0220FEA95EAF72095622F682313
:100AB00082E00C940B058D3708F08DE7682F85E0F8
:100AC0000C940B05FF920F931F93CF93DF93C62FC8
:100AD000D42F9F938F938EE892E09F938F930E94E1
:100AE000CF16DC0F0F900F900F900F9006E812E0DA
:100AF000CD1791F0FF24F394FC0E8C2F0E94CD04AF
:100B00001F928F931F930F930E94CF160F900F90F9
:100B10000F900F90CF2DECCF83E892E09F938F93AF
:100B20000E94CF160F900F90DF91CF911F910F91E0
:100B3000FF9008952F923F924F925F926F927F9213
:100B40008F929F92AF92BF92CF92DF92EF92FF92DD
:100B50000F931F93CF93DF931F92CDB7DEB7962EDF
:100B6000342E4DB65EB69F938F938EE792E09F939F
:100B70008F930E94CF16390C0F900F900F900F900B
:100B80008AE7C82E82E0D82E95E7A92E92E0B92EEA
:100B9000931409F44CC06DB67EB620901806022D51
:100BA00010E08DB79EB7801B910B0FB6F8949EBFD7
:100BB0000FBE8DBFEDB7FEB731967F01F1E0F90DA5
:100BC000F9830E949804892D8F710E948B03809372
:100BD0000F0647012A948FEF281631F00E948B03ED
:100BE000F40181934F01F6CF0E94F701DF92CF927B
:100BF0000E94CF160E0D1F1D0F900F90015011096E
:100C00000E151F0568F0F80180811F928F93BF9227
:100C1000AF920E94CF160F900F900F900F90EECFD3
:100C20000FB6F8947EBE0FBE6DBE9980B1CF82E73D
:100C300092E09F938F930E94CF160F900F900FB664
:100C4000F8945EBE0FBE4DBE0F90DF91CF911F9105
:100C50000F91FF90EF90DF90CF90BF90AF909F905B
:100C60008F907F906F905F904F903F902F9008955E
:100C7000DC011596ED91FC91309729F020813181AE
:100C80002115310511F40E947B1DFC0183819481A3
:100C9000820F931F0895CF93DF93EC010E943806D3
:100CA0004A8150E070E060E0DF91CF910C941A1A15
:100CB000CF93C62FFC012281621710F00E947B1D8A
:100CC0000E9438068C0F911DCF910895DF92EF920C
:100CD000FF920F931F93CF93DF938C017B0160E012
:100CE0000E945806FC018081F801D080D1E0DD151A
:100CF00070F4B70190E00E942404C82F6D2FC80142
:100D00000E945806FC0180818C27DF5FF0CFDF91C5
:100D1000CF911F910F91FF90EF90DF900895AF92C8
:100D2000BF92CF92DF92EF92FF920F931F93CF93D8
:100D3000DF938C017B016A01FB0140814150FC0182
:100D4000C081C40FF601C083C6010E9438064C2F33
:100D500050E070E060E00E941A1AC0E0F701808164
:100D6000C81720F5D0E0F8018081D817E8F46C2F7F
:100D7000C7010E9458065C016D2FC8010E945806E9
:100D8000F501608170E0FC01808190E00E94240404
:100D9000B82E6C2F6D0FC6010E945806FC01908181
:100DA0009B259083DF5FDFCFCF5FD8CFDF91CF91DF
:100DB0001F910F91FF90EF90DF90CF90BF90AF9079
:100DC0000895AF92BF92CF92DF92EF92FF920F936E
:100DD0001F93CF93DF936C017B01EA01DB018C91C0
:100DE000F6011081181708F4182F1883CE010E94FD
:100DF0003806412F50E070E060E00E941A1A10E0BF
:100E0000D6010C91101788F4612FC6010E94580674
:100E10005C016881601B610FCE010E945806F501DC
:100E20002081DC012C931F5FEBCF10E0F701B08035
:100E30001B1598F4612FC7010E9458066C01688148
:100E40006B19610FCE010E945806FC019081D601FA
:100E50008C91982790831F5FE9CFDF91CF911F91ED
:100E60000F91FF90EF90DF90CF90BF90AF900895DB
:100E70008F929F92AF92BF92CF92DF92EF92FF92AA
:100E80000F931F93CF93DF934C018B016A01FC01F9
:100E90008081FB018083D0E0C0E0F40180818C1769
:100EA0001D06A9F0A0F06C2FC4010E9458065C0139
:100EB0006C2FC8010E9458067C01F5018081B601A3
:100EC00090E00E942404F70180832196E6CFDF9111
:100ED000CF911F910F91FF90EF90DF90CF90BF9037
:100EE000AF909F908F900895AF92BF92CF92DF9274
:100EF000EF92FF920F931F93CF93DF93EC018B013F
:100F0000B42EA22E672B59F0E42EF12C8A8190E0AA
:100F1000C22ED12C8C199D098E159F0514F40E94A8
:100F20007B1DCE010E943806A701B8018C0D9D1DC6
:100F30000E94801DBA0CB882DF91CF911F910F9152
:100F4000FF90EF90DF90CF90BF90AF9008950F93F8
:100F50001F93CF938C01CB01FB012081F801C0814D
:100F6000C21708F4C22FF801C0830E94380620E09F
:100F70004C2FBC01C801CF911F910F910C947407A5
:100F8000EF92FF920F931F93CF93DF938C01E62E86
:100F9000FC01F080CF2DD0E0CE01019622812817F0
:100FA000190609F014F40E947B1DC8010E9438063E
:100FB000F394F801F082C80FD91FE88281E0DF9135
:100FC000CF911F910F91FF90EF90089581E00E94C3
:100FD0000A02BC01990F880B990B611571058105F7
:100FE000910511F00E947B160E942C1628E030E03B
:100FF00040E050E00E94BA1A645F7E4F7093150182
:101000006093140108958F929F92AF92BF92CF92F6
:10101000DF92EF92FF920F931F93CF93DF93C4E57C
:10102000D2E008E612E0B5E5CB2ED12CE12CF12C74
:1010300080E2982E95E0892E80910706909108060F
:101040002091090630910A068217930731F00E9419
:101050007801809109060E947801BFB6F8948091CA
:101060008404811122C0FE018491F8019491E82F3B
:10107000F0E0EE0FFF1FE05CFD4FA591B4918C9165
:10108000982321F461E08AE00E9497018AE00E949F
:1010900078018CB580618CBD8CB580648CBD8DE091
:1010A0000E9478018BE00E947801809184048F5F18
:1010B00080938404BFBE80E00E94FA0181E00E9418
:1010C000E30165E070E080E090E00E9440026FE59F
:1010D00084E00E940B0586E00E94CD04C0921C06AD
:1010E000D0921D06E0921E06F0921F06682F677DC3
:1010F00086E00E940B0586E00E94CD048DE10E94EF
:10110000CD04B82E0E94FF048DE10E94CD0491E031
:10111000B81290E090931A06882341F0B81202C0EA
:101120000E94FF0460E08DE10E940B051092120600
:1011300060E08CE10E940B05109211066FE381E0E4
:101140000E940B0563E082E00E940B05909210065E
:1011500071E1B72E609110068B2D0E940B05B394A0
:10116000F7E1BF12F7CF63E083E00E940B058092A6
:1011700018068CE40E945B0560E787E00E940B057F
:1011800082EE0E94C00481EE0E94C0046CE080E008
:101190000E940B0580E00E94CD04809319060E94F6
:1011A0001E05809119068E30E1F06FEFA62E61E0EA
:1011B000B62EF5016491662349F086EC94E00E9416
:1011C0001E03FFEFAF1ABF0A892B99F782E394E061
:1011D0000E94470468EE73E080E090E00E944002C5
:1011E0002BCF0E94E607E0911401F0911501808158
:1011F0000E945B0586E00E94CD04682F676086E050
:101200000E940B054091180666E071E08AE00E949A
:10121000DF044091180666E071E080E10E94DF047F
:10122000ECEDF0E084914091180660E071E00E94DE
:10123000DF0482E00E94CD04E4E9F2E0E49161E0A1
:1012400070E001C0660FEA95EAF7682B82E00E9421
:101250000B0560E081E00E940B0580911206882357
:1012600051F08DE10E94CD04682F6D6F8DE10E94D9
:101270000B051092120686E00E94CD04877D4BE993
:1012800050E060E070E040931C0650931D066093B0
:101290001E0670931F06682F606286E00E940B0591
:1012A00086E00E94CD0488E080931006C1E1609141
:1012B00010068C2F0E940B05CF5FC731C1F76091DC
:1012C0000B0670910C0680910D0690910E0620E49D
:1012D00032E44FE050E00E94231B1F922F938AEECE
:1012E00091E09F938F930E94CF168FEF0E94C004CE
:1012F00040910F06842F90E0242F21701F922F938E
:101300009C0135952795277033273F932F9344FBF6
:10131000992790F91F929F9345FB992790F91F9267
:101320009F9346FB882780F91F928F931F924F93BC
:1013300081EE90E09F938F930E94CF1642E06AE087
:101340008DED91E00E949A0544E06CE080ED91E023
:101350000E94620541E060E187EC91E00E949A05FD
:1013600046E061E18CEB91E00E94620541E061E0C2
:1013700085EB91E00E94620541E062E08BEA91E03A
:101380000E94620541E065E084EA91E00E94620506
:1013900041E066E08BE991E00E94620541E060E097
:1013A00083E991E00E94620542E06CE185E891E00A
:1013B0000E94620586E00E94CD0488722DB73EB778
:1013C0002E5E3F4F0FB6F8943EBF0FBE2DBFE2E03A
:1013D000F0E0803239F021E090E0883009F020E040
:1013E000E22FF92FEE0FFF1FE158FE4F85919491E8
:1013F0009F938F9380E791E09F938F930E94CF16E6
:10140000E0911A06F0E0EE0FFF1FE459FE4F8591C0
:1014100094919F938F938EE591E09F938F930E9479
:10142000CF1681E00E94CD04C82F80E00E94CD0439
:1014300080931906EDB7FEB738960FB6F894FEBF45
:101440000FBEEDBF83FD04C0F0E0E0E0CC2331F03F
:10145000E2E0F0E082FD02C0E1E0F0E0EE0FFF1F0D
:10146000E85AFE4F859194919F938F9388E491E081
:101470009F938F930E94CF1686E00E94CD04E82FA1
:10148000F0E0F595E795E370F0E0EE0FFF1FE05C0C
:10149000FE4F859194919F938F9382E391E09F9368
:1014A0008F930E94CF1688E00E94CD048F701F9208
:1014B0008F9386E291E09F938F930E94CF162DB772
:1014C0003EB7245F3F4F0FB6F8943EBF0FBE2DBF0F
:1014D000DF91CF911F910F91FF90EF90DF90CF9010
:1014E000BF90AF909F908F900C942D051F920F92FC
:1014F0000FB60F9211242F933F938F939F93AF9327
:10150000BF938091BE049091BF04A091C004B0919C
:10151000C1043091BD0423E0230F2D3758F5019607
:10152000A11DB11D2093BD048093BE049093BF0400
:10153000A093C004B093C1048091C2049091C304ED
:10154000A091C404B091C5040196A11DB11D809362
:10155000C2049093C304A093C404B093C504BF9184
:10156000AF919F918F913F912F910F900FBE0F9050
:101570001F90189526E8230F0296A11DB11DD2CF0A
:101580001F920F920FB60F9211242F933F934F93F8
:101590005F936F937F938F939F93AF93BF93EF93DB
:1015A000FF9386EC94E00E94FC02FF91EF91BF91C3
:1015B000AF919F918F917F916F915F914F913F91EB
:1015C0002F910F900FBE0F901F9018951F920F92A2
:1015D0000FB60F9211242F938F939F93EF93FF9346
:1015E000E091D604F091D7048081E091DC04F09181
:1015F000DD0482FD1BC090818091DF048F5F8F73BB
:101600002091E004821741F0E091DF04F0E0EA531A
:10161000FB4F958F8093DF04FF91EF919F918F9106
:101620002F910F900FBE0F901F9018958081F4CFCF
:101630001F920F920FB60F9211242F933F934F9347
:101640005F936F937F938F939F93AF93BF93CF934A
:10165000DF93EF93FF9380918504C0918705D0E0DD
:1016600087FF24C010928500109284008091850429
:101670008F5F8093850480918504082E000C990B60
:101680008C179D0724F4809185048C30C4F18091DF
:10169000840090918500049680349C4908F47AC0B7
:1016A0008091840090918500049676C08091850495
:1016B000082E000C990B8C179D07C4F6E091850449
:1016C0008E2FEE0F990BFC01EE0FFF1FE80FF91F95
:1016D000ED59FA4F808186FFC9CFE09185048E2FA6
:1016E000EE0F990BFC01EE0FFF1FE80FF91FED59EC
:1016F000FA4F808160E08F730E949701B7CF2091ED
:10170000840030918500E09185048E2FEE0F990BB7
:10171000FC01EE0FFF1FE80FF91FED59FA4F818111
:101720009281820F931F9093890080938800E091AB
:1017300085048E2FEE0F990BFC01EE0FFF1FE80FB3
:10174000F91FED59FA4F808186FF11C0E0918504A1
:101750008E2FEE0F990BFC01EE0FFF1FE80FF91F04
:10176000ED59FA4F808161E08F730E949701FF91DC
:10177000EF91DF91CF91BF91AF919F918F917F9129
:101780006F915F914F913F912F910F900FBE0F90EE
:101790001F90189580E49CE99093890080938800BD
:1017A0008FEF80938504E3CF1F920F920FB60F92B5
:1017B00011242F933F934F935F936F937F938F9356
:1017C0009F93AF93BF93EF93FF938091BC048823C3
:1017D00061F080919C04811108C081E794E00E942F
:1017E000470482E394E00E94470480919C0491E0C6
:1017F000892780939C0481119093BC04FF91EF9101
:10180000BF91AF919F918F917F916F915F914F9118
:101810003F912F910F900FBE0F901F90189510922F
:10182000C9041092C80488EE93E0A0E0B0E0809371
:10183000CA049093CB04A093CC04B093CD0484E26B
:1018400094E09093C7048093C60485EC90E0909355
:10185000D3048093D20484EC90E09093D5048093D9
:10186000D40480EC90E09093D7048093D60481EC6C
:1018700090E09093D9048093D80482EC90E0909308
:10188000DB048093DA0486EC90E09093DD0480938F
:10189000DC041092DF041092E0041092E104109234
:1018A000E20487E090E0909308068093070688E0C2
:1018B00090E090930A068093090680E896E9A8E9EB
:1018C000B0E080930B0690930C06A0930D06B093A6
:1018D0000E0680E28093100681E08093110685E079
:1018E0008093180610921A0685E090E0A0E0B0E020
:1018F0008093200690932106A0932206B09323069E
:1019000010921306A0E9B5E0EEE8F5E01C921696F9
:101910001C921E921597179686E0A730B807B1F76C
:101920008EE895E01092910510929405109293051F
:1019300028E020939205109290059093960580934D
:10194000950531E03093980548E050E050939B05B1
:1019500040939A05209399051092970590939D05C1
:1019600080939C0532E030939F0540E150E0509316
:10197000A2054093A1052093A00510929E05909387
:10198000A4058093A30533E03093A60548E150E019
:101990005093A9054093A8052093A7051092A5058B
:1019A0009093AB058093AA0534E03093AD0540E2F7
:1019B00050E05093B0054093AF052093AE051092D0
:1019C000AC059093B2058093B10535E03093B40532
:1019D00048E250E05093B7054093B6052093B50513
:1019E0001092B3059093B9058093B80520E330E0D9
:1019F00086E098E04EE855E085A730AB27A796A78C
:101A000014A652AB41AB285F3F4F8F5F37968131B1
:101A100099F7809187058C3048F591E0980F909365
:101A2000870580938B0590E0FC01EE0FFF1FE80F08
:101A3000F91FED59FA4F88EB9BE0928381838091E7
:101A400087058C30B8F491E0980F909387058093C8
:101A5000880590E0FC01EE0FFF1FE80FF91FED591C
:101A6000FA4F88EB9BE09283818308958FEF8093F8
:101A70008B05E5CF8FEF809388050895CF93DF9393
:101A8000CDB7DEB7C058D1090FB6F894DEBF0FBE90
:101A9000CDBF789484B5826084BD84B5816084BDF7
:101AA00085B5826085BD85B5816085BD80916E00FC
:101AB000816080936E00109281008091810082602D
:101AC000809381008091810081608093810080916A
:101AD00080008160809380008091B1008460809359
:101AE000B1008091B00081608093B00080917A0055
:101AF000846080937A0080917A00826080937A007B
:101B000080917A00816080937A0080917A00806869
:101B100080937A001092C100E091D604F091D7042E
:101B200082E08083E091D204F091D3041082E091AE
:101B3000D404F091D50480E180831092DE04E0911A
:101B4000DA04F091DB0486E08083E091D804F09120
:101B5000D904808180618083E091D804F091D90418
:101B6000808188608083E091D804F091D9048081DD
:101B700080688083E091D804F091D90480818F7DC2
:101B8000808370E060E08BE394E00E9484160E9402
:101B9000030883E00E94780183E00E94780160E0FE
:101BA00083E00E94970165E070E08BE895E00E9479
:101BB000C90366E070E088E895E00E94C90370E020
:101BC00060E08BE895E00E94920370E060E088E8B6
:101BD00095E00E949203F8941092B0001092B10028
:101BE0001092B2008BE98093B3008091B0008260C4
:101BF0008093B0008091B10087608093B1008091A4
:101C00007000826080937000789422242A94312C92
:101C100080911B06882351F085E394E00E944704DD
:101C200082E394E00E9447040E9403088091BC0470
:101C3000882309F44CC01092BC040091BA0410919E
:101C4000BB04B8018BE895E00E9492036091B80450
:101C50007091B90488E895E00E9492038091B604DF
:101C60009091B704803223E0920708F4CEC000328E
:101C7000A3E01A0708F4C2C09C01201B310B2031DD
:101C800031050CF4BDC0065F1F4F1093BB040093D9
:101C9000BA048091B4049091B5049093B9048093F0
:101CA000B8041091B304123309F0B4C00E94E607DF
:101CB000E0911401F091150180810E945B05B1E073
:101CC000B093B2048091B3048F5F8093B3048FEF1D
:101CD0000E94C00480910F0690E0959587958770CB
:101CE000863008F4D0C08091B2048823F9F01092B5
:101CF000B20480E494E00E944704E0911401F09162
:101D00001501608170E090E080E04AE00E94540498
:101D100082E394E00E9447041092B7041092B60444
:101D20008CED95E09093B5048093B4040E94720208
:101D30009B01AC0160E070E080E090E0A0908C043A
:101D4000B0908D04C0908E04D0908F04E0909004E9
:101D5000F090910400919204109193040E944C1D04
:101D6000283E334041055105610571058105910506
:101D700009F008F401C70E9472028B019C01609374
:101D80008C0410938D0480938E0430938F041092F2
:101D900090041092910410929204109293048DE595
:101DA00094E00E9447046091980470919904809196
:101DB0009A0490919B044AE00E94540482E394E0C8
:101DC0000E94470483E694E00E9447040AEA14E074
:101DD00082EBE82E84E0F82EE016F10609F4B9C68D
:101DE000D8016D918D0170E090E080E04AE00E94A2
:101DF00054048BE594E00E944704EECF88EE93E014
:101E00009093BB048093BA0444CF1092BB04109209
:101E1000BA043FCF8091140190911501FC01EC5060
:101E2000F140E655FB4F20812F5F20831233B8F439
:101E3000E1E083319E0789F48CE091E090931501F5
:101E400080931401E0911401F091150180810E94AA
:101E50005B051F5F1093B3043ACF0196EFCF8091DB
:101E6000A9048F5F833318F48093A90430CF1092B4
:101E7000A9040E94E607E0911401F0911501808108
:101E80000E945B0524CF8091110610E008E08111CB
:101E900007C010911006012F193008F008E0101B40
:101EA0000E94980481E60E948B0380930F06A1EAAA
:101EB000B4E0C158DF4FB983A883CF57D0407D012C
:101EC000015038F08FEF0E948B03F70181937F015F
:101ED000F7CF115020F08FEF0E948B03FACF0E94B2
:101EE000F70160E487E00E940B0581E090E08C0F31
:101EF0009D1F90938F0580938E0520E044E061EA5A
:101F000074E080E995E00E94740724E044E065EA0B
:101F100074E080E995E00E94740760E975E087E964
:101F200095E00E94A7071092E40595E09093C805FC
:101F300060E088EC95E00E945806DC011C92E0E22B
:101F4000F2E0EF96FFAFEEAFEF977F0111E0D70120
:101F50006D917D0170E080E995E00E946606082F92
:101F6000612F88EC95E00E945806FC0100831F5FFA
:101F7000153069F70091C80510E0011709F4C1C3D5
:101F8000612F88EC95E00E945806DC018C9181114C
:101F900000C61F5FF2CF8FEC95E00E944B0688ECE5
:101FA00095E00E9438064091C8054150BC016F5F22
:101FB0007F4F20E08FEC95E00E947407612C7090B9
:101FC000E405671408F044C0662D85EA95E00E9498
:101FD0005806DC012C91AA24AA94B12CC12CD12C36
:101FE000E12CF12C00E010E030E040E050E060E057
:101FF00070E080E090E00E94AC1CF901E05EFD4FD3
:10200000E080F12C8091CF058150990B212F012E7A
:10201000000C330B28173907CCF4612F8FEC95E0B7
:102020000E9458066C01FC018081B70190E00E947B
:102030002404082F1F5F612F8FEC95E00E94580643
:10204000DC018C918027F6018083DCCF6394B7CFCD
:10205000072D10E0F1E0F093A505F093AC0560E0EA
:1020600085EA95E00E945806E1E0DC01EC9360E02F
:102070008CEA95E00E945806E1E0DC01EC93809147
:10208000CF05ACEF6A2E680E853008F4612C412C28
:10209000F4E0EF2EF12CE01AF10A1091A5054E1490
:1020A0001F0408F06CC0B42CB60C6B2D8FEC95E0BF
:1020B0000E945806DC010C9199249A94910E5524A3
:1020C00053945116C8F4A92CA5186B2D65198FECE3
:1020D00095E00E9458066C016A2D85EA95E00E9401
:1020E0005806F601608170E0DC018C9190E00E945E
:1020F000240408275394E5CF60E08CEA95E00E9421
:10210000C0070023D1F110E09091AC058091A505A6
:102110008917F0F4A8016AEB75E08CEA95E00E945B
:102120003807F801E05EFE4F8081F101E81BF109FC
:10213000E05EFD4F408150E06CEA75E085EA95E095
:102140000E9438076AEB75E085EA95E00E94A707D0
:10215000A8016AEB75E08CEA95E00E94380741EC33
:1021600055E06AEB75E085EA95E00E94E10661ECD6
:1021700075E085EA95E00E94A70743948ECFC12CB5
:10218000D12C7601112379F06C2D85EA95E00E941F
:102190005806FC018081811106C0FFEFCF1ADF0ACB
:1021A000EF0AFF0AEFCF472D50E070E060E0812F8B
:1021B00090E0B0E0A0E08C199D09AE09BF092A01AA
:1021C0003B014094509460947094840D951DA61D1D
:1021D000B71D880F991FAA1FBB1F840F951FA61F2D
:1021E000B71F0597A105B105C0F4012F10E00C1928
:1021F0001D0985EA95E00E9438063C016C0C7D1CA7
:102200008DED95E00E943806A801B3010E94801D63
:102210008091A5058C198093DD050091DD05009363
:10222000A5050150102F17FD12C0612F8DED95E00F
:102230000E9458067C01602F611B85EA95E00E9490
:102240005806D7012C91FC0120831150ECCF10913E
:10225000A50511501092EB0540E2E42E42E0F42E69
:1022600007E0D7016D917D0170E085EA95E00E945D
:102270006606811105C0602F8BEE95E00E94C007B5
:10228000015078F78091EB05181321CD112309F443
:102290001ECD10E08091EB05181768F4612F8BEECE
:1022A00095E00E945806FC01608184EE95E00E9452
:1022B000C0071F5FEFCF8091E4058093F20510E027
:1022C0008091E4051817A8F400919005612F84EE21
:1022D00095E00E9458067C01612F82EF95E00E94F4
:1022E00058060150D7012C91021BFC0100831F5F8F
:1022F000E7CFF1E0F093D60560E086ED95E00E942F
:102300005806E1E0DC01EC93E093A50582E08093C0
:10231000AC05712C8091F205781608F04DC060E094
:1023200085EA95E00E945806E1E0DC01EC93672D18
:1023300082EF95E00E9458068C0160E08CEA95E0FF
:102340000E9458062C01D8012C91AA24AA94B12CE1
:10235000C12CD12CE12CF12C00E010E030E040E069
:1023600050E060E070E080E090E00E94AC1CF90179
:10237000E05EFD4F8081F201808361E08CEA95E0B0
:102380000E945806DC011C924AEB55E06CEA75E0AD
:1023900085EA95E00E94E10641EC55E06AEB75E0C4
:1023A00086ED95E00E948F0661EC75E086ED95E084
:1023B0000E94A7077394AECF0091C8050093BA0599
:1023C0000150102F17FD12C0612F88EC95E00E947C
:1023D00058067C01602F611B8AEB95E00E9458062D
:1023E000F7012081DC012C931150ECCF1091D60520
:1023F00045EA55E066ED75E08AEB95E00E948F06B0
:102400001F5F1093AC058CEA95E00E944B0660E0DC
:102410008CEA95E00E94580621E0FC01208385EAC1
:1024200095E00E9438068C0181EC95E00E94380608
:102430000817190731F04091A50550E0B8010E9436
:10244000801D8091A5058093C105F12CE12C0091A0
:10245000A50510E08091AC058150990B081B190B64
:10246000E016F10674F50E2D6E2D81EC95E00E94BC
:102470005806DC01CC90CC2001F111E0D12C8091E8
:10248000AC051817D0F4612F8CEA95E00E9458062D
:10249000FC018081882379F0B60190E00E94240439
:1024A000B82E602F610F81EC95E00E945806FC0168
:1024B00090819B2590831F5FE2CFFFEFEF1AFF0A09
:1024C000C6CFE090C105F12CE01AF10A81EC95E04D
:1024D0000E943806BC01600F711FA7010E94891D70
:1024E0008091C105801B8093C1058093F9051FEF82
:1024F000180F012F07FD12C0602F81EC95E00E949C
:1025000058067C01612F601B89EF95E00E945806F8
:10251000D7012C91FC0120830150ECCF1092A5052E
:10252000712C8091F2057816C8F5672D82EF95E041
:102530000E945806DC018C91A101481B510951955C
:1025400041955109952F990F990BAA24AA94B12C62
:10255000C12CD12CE12CF12C00E010E09A01492F84
:10256000592F692F792F892F0E94AC1C4901A0E0B7
:102570000E94551D49F021503F4F4F4F5F4F6F4F05
:102580007F4F8F4F9F4F4901F401E05EFD4F608107
:1025900085EA95E00E94C0077394C3CF83EB95E072
:1025A0000E944B06809190058093B305612C809129
:1025B000A505681608F09DC0662D85EA95E00E9485
:1025C0005806DC01EC91F0E0E05EFE4F8081F10105
:1025D000E81BF109E05EFD4FE0801092AC0510E0D1
:1025E000F12C8091A5051817B0F00091AC0510E012
:1025F00077247394011721F1612F8CEA95E00E94F2
:102600005806DC016C9170E0872D90E00E94240454
:10261000782E1F5FEFCF611689F0612F85EA95E074
:102620000E945806FC01608170E0C7010E942404EA
:1026300061E068278CEA95E00E94C0071F5FD1CF58
:10264000B70181EC95E00E946606482E512C662D5C
:1026500085EA95E00E945806DC01EC91F0E0E05E2E
:10266000FE4F2081AA24AA94B12CC12CD12CE12C9C
:10267000F12C00E010E030E040E050E060E070E07D
:1026800080E090E00E94AC1CF901E05EFD4F80818B
:10269000B20190E00E942404182F662D84EE95E08C
:1026A0000E945806FC01608183EB95E00E94580669
:1026B0009C01711002C00E947B1D1123B1F0E12F1B
:1026C000F0E0E05EFE4F808190E081509F4FE72D6B
:1026D000F0E0E05EFE4F4081841B9109B1010E9451
:1026E000911CFC01E05EFD4F1081D9011C936394A5
:1026F0005ECF47E955E063EB75E080E995E00E9425
:10270000E10684E08093970587E995E00E9438060A
:10271000FC0180819181A281B38180939D0490937B
:102720009E04A0939F04B093A004809170008D7FBD
:10273000809370001092B20080917000826080934C
:1027400070001092B3041092A90410929C0410918E
:10275000A004212F30E0A8EEB3E00E94451B2FEF2C
:1027600030E040E050E00E94BA1A28513C4F4F4FF1
:102770005F4F3093B7042093B604612F70E090E070
:1027800080E00E948C1B2DEC3CEC4CE45DE30E944D
:10279000F01B0E94541B20919D04A22FB0E0A60FB5
:1027A000B71FB7FF02C0B0E0A0E0AF3FB10519F01E
:1027B00014F0AFEFB0E028EE33E00E94A51C2FEF3D
:1027C00030E040E050E00E94BA1A28513C4F4F4F91
:1027D0005F4F3093B5042093B40480919804909196
:1027E0009904A0919A04B0919B040196A11DB11D7A
:1027F0008093980490939904A0939A04B0939B04B7
:10280000E0911401F0911501EC50F140E655FB4FB9
:102810008081882311F08150808380E00E940A0229
:10282000BC01990F880B990B0E948C1B20E030E0B3
:1028300040E85AE30E94F01B20E030E040E450E41E
:102840000E94F01B20E030E040EA50E40E94F01BC0
:1028500060939404709395048093960490939704E6
:102860006093A1047093A2048093A3049093A404A2
:1028700081E090E08C0F9D1F90938F0580938E05D3
:1028800080E995E00E944B0687E995E00E944B069F
:1028900080918B04882309F454C020E045E066E869
:1028A00074E08EE995E00E94740720E044E064E95A
:1028B00074E080E995E00E94740720E044E064E958
:1028C00074E087E995E00E947407809190058C5F21
:1028D00080939705B12C6B2D87E995E00E945806EF
:1028E000DC010C91002309F478C0C12CD12C7601B5
:1028F000C39410E080919E0590E0B0E0A0E0C8167F
:10290000D906EA06FB0608F068C06C2D8EE995E052
:102910000E945806FC018081B80190E00E942404C6
:10292000A82E6B2D6C0D87E995E00E945806FC01DE
:1029300090819A259083FFEFCF1ADF0AEF0AFF0AF2
:10294000D9CF60E08EE995E00E945806E1E0DC0115
:10295000EC93E0939E0582E08093A50504E212E0EB
:1029600060E085EA95E00E945806E1E0DC01EC9326
:1029700061E085EA95E00E945806EF96AEADBFADE6
:10298000EF972D91EF96BFAFAEAFEF97FC0120838D
:102990004CEA55E065EA75E08EE995E00E948F0605
:1029A0006CEA75E08EE995E00E94A707EF968EAD80
:1029B0009FADEF970817190799F68EE995E00E94E9
:1029C000380640919E0550E0BC0186E894E00E94E4
:1029D000801D91E090938B0468CFB39424E0B212F1
:1029E0007ACF87E995E00E943806FC01349694E09E
:1029F000A5EAB4E001900D929A95E1F780E00E947B
:102A0000FA0180911C0690911D068230910538F0E4
:102A1000880F991F880F991F05970197F1F78091EB
:102A20001206882319F081EE0E94C00460911906F5
:102A30006E7F6093190680E00E940B0582E00E9481
:102A4000CD04E3E9F2E0E49161E070E001C0660FDB
:102A5000EA95EAF7682B82E00E940B050E94720259
:102A60006B017C018FEF0E94C00480910F0680FFF4
:102A70002AC084FD0EC00E9472026C197D098E0965
:102A80009F09603671058105910560F381E08093AF
:102A90001B060E9472026B017C0187E10E94CD043B
:102AA00084FD53C080910F0684FF3FC060E187E042
:102AB0000E940B0580E00E94FA0181EE0E94C00492
:102AC0000E942D0504C98091110610E008E08111D3
:102AD00007C010911006012F193008F008E0101BF4
:102AE0000E94980480EA0E948B0380930F06015095
:102AF00080F0C158DF4FA881B981CF57D0408D9168
:102B0000C158DF4FB983A883CF57D0400E948B03B1
:102B1000EECF115020F080E00E948B03FACF0E948C
:102B2000F70181E00E94FA01B4CF0E9472026C1991
:102B30007D098E099F09603671058105910508F4AC
:102B4000ACCFB1E0B0931B06BBCF80E00E94FA018E
:102B5000B7CF82E394E00E94470410929804109249
:102B6000990410929A0410929B04EAEAF4E088E037
:102B7000DF011D928A95E9F780E090E0892B09F446
:102B800047C80E94E802882309F442C80E94000056
:102B90003FC81092A50510E08091E405181708F0D1
:102BA000FAC9612F84EE95E00E945806FC018081ED
:102BB00067E0681B85EA95E00E94C0071F5FECCFC5
:102BC0008F929F92AF92BF92CF92DF92EF92FF923D
:102BD000CF93DF93EC01688179818A819B816115B4
:102BE00071058105910521F464E279ED8BE597E0AB
:102BF0002DE133EF41E050E00E94BA1A49015A0139
:102C00009B01AC01A7EAB1E40E94D91A6B017C01D7
:102C1000ACEEB4EFA50194010E94E71AC60ED71ED0
:102C2000E81EF91EF7FE06C081E0C81AD108E108C7
:102C300080E8F80AC882D982EA82FB82C701B6011D
:102C40009F77DF91CF91FF90EF90DF90CF90BF9073
:102C5000AF909F908F9008958F929F92AF92BF9266
:102C6000CF92DF92EF92FF9260911601709117015F
:102C700080911801909119016115710581059105E7
:102C800021F464E279ED8BE597E02DE133EF41E04B
:102C900050E00E94BA1A49015A019B01AC01A7EA0F
:102CA000B1E40E94D91A6B017C01ACEEB4EFA5012E
:102CB00094010E94E71AC60ED71EE81EF91EF7FE01
:102CC00006C081E0C81AD108E10880E8F80AC0927D
:102CD0001601D0921701E0921801F0921901C70174
:102CE000B6019F77FF90EF90DF90CF90BF90AF90AD
:102CF0009F908F90089560931601709317018093B1
:102D000018019093190108950F931F93CF93DF93A8
:102D1000009759F46115710541F4F0E0E0E0CF014E
:102D2000DF91CF911F910F9108958B01EC016EE01F
:102D300070E081E090E00E94CE18FC01892B69F3DD
:102D400080E883830115110571F01387028781E8FC
:102D500083838091240690912506892B21F4F0939A
:102D60002506E09324062097D1F2D187C08783817E
:102D7000826083838091260690912706892B79F6BD
:102D8000F0932706E0932606809128069091290665
:102D9000892B29F6F0932906E0932806C0CFB0E0EE
:102DA000A0E0E5EDF6E10C94FA1AAE01495F5F4F41
:102DB000DA016D917D91AD0104E216E0F8018281A6
:102DC0009381DC0113962C911397286013962C9312
:102DD0000E94F416D8011296ED91FC912381277F71
:102DE0002383E4E00C94161BABE0B0E0EAEFF6E1DD
:102DF0000C94EC1A7C013B018A01FC0117821682BB
:102E0000838181FFC8C1CE0101965C01F7019381E6
:102E1000F30193FD859193FF81913F01882309F48C
:102E200053C1853239F493FD859193FF81913F0120
:102E3000853229F4B70190E00E942C1AE7CF912C3B
:102E4000212C312CFFE1F31538F08B3211F190F485
:102E5000803209F1833229F137FC3CC020ED280F84
:102E60002A3050F536FE20C08AE0989E200D1124AD
:102E7000922E06C08D3291F0803371F7689430F84D
:102E8000F30193FD859193FF81913F018111DACF89
:102E900021C0689431F8689432F8F2CF689433F81E
:102EA000EFCF689434F8ECCFEAE02E9E200D112489
:102EB000222E689435F8E4CF8E3229F436FC04C112
:102EC000689436F8DDCF8C3619F4689437F8D8CF8B
:102ED0008836B1F2982F9F7D95549330E0F0833679
:102EE000A1F18337C1F1833509F063C02801F2E015
:102EF0004F0E511CF801C080D180692D70E036FC66
:102F000002C06FEF7FEFC6010E940F1A4C01689458
:102F100037F882010AC00C5F1F4FFFE3F983882452
:102F20008394912C6501E89437F833FE2DC0522C20
:102F30008114910471F5552009F468CFB70180E23E
:102F400090E00E942C1A5A94F6CFF8018081898370
:102F50000E5F1F4FE4CF2801F2E04F0E511CF80125
:102F6000C080D180692D70E036FC02C06FEF7FEF2A
:102F7000C6010E94211A4C018201D5CFB70180E21F
:102F800090E00E942C1A2A942814190409F0B0F732
:102F9000CECFF60137FC859137FE81916F01B701E5
:102FA00090E00E942C1A51105A94F1E08F1A910867
:102FB000BFCF843619F0893609F077C0F80137FEA3
:102FC0006BC060817181828193810C5F1F4FF32DF3
:102FD000FF763F2E97FF09C090958095709561957B
:102FE0007F4F8F4F9F4F689437F82AE030E0A5015C
:102FF0000E945C1AC82ECA188C2C432C36FE0CC0BA
:10300000E89440F8C91440F434FE05C032FC03C013
:10301000F32DFE7E4F2E892C44FE95C0FE01EC0D53
:10302000F11D8081803309F087C0242D297E422E36
:10303000842D8870582E43FC95C040FE8FC09C2C78
:10304000821418F42C0C922C981844FE91C0B701ED
:1030500080E390E00E942C1A42FE09C088E790E0CD
:1030600041FE02C088E590E0B7010E942C1AC91405
:1030700008F48AC0CA94D12C9FEFC91AD90ACA0C85
:10308000DB1CF60182916F01B70190E00E942C1ABF
:10309000AC14BD04B1F74FCF60817181072E000CD5
:1030A000880B990B0E5F1F4F92CFD32CE894D4F866
:1030B0002AE030E0853739F1232D297FD22E8F3653
:1030C00001F148F48835A9F0F701868197812B96A4
:1030D000E2E10C94081B803749F08837A9F7D4FE49
:1030E00002C06894D2F820E130E00DC06894D4F8B2
:1030F000F6CF34FE03C0822F8660D82E20E132E066
:1031000002C028E030E0F801D7FE0FC06081718175
:10311000828193810C5F1F4FA5010E945C1AC82E0B
:10312000CA183D2CE89437F867CF6081718190E030
:1031300080E00E5F1F4FF0CF42FC02C0839478CF37
:103140008394839475CF842D867809F471CFF6CF5C
:10315000B70180E290E00E942C1A83948214C0F39D
:10316000512C73CF522C5818821408F46ECFF8CF1C
:10317000842D867809F47BCF8BE241FE80E247FC08
:103180008DE2B70190E071CFB70180E390E00E943B
:103190002C1A9A946CCF8FEF9FEF99CF0F931F93B8
:1031A000CF93DF93869F8001879F100D969F100D10
:1031B0001124C8010E94EA18EC01009729F0A80127
:1031C00070E060E00E941A1ACE01DF91CF911F914A
:1031D0000F9108950F931F93CF93DF938230910542
:1031E00010F482E090E0E0912C06F0912D0630E0A2
:1031F00020E0B0E0A0E0309799F42115310509F402
:103200004AC0281B390B24303105D8F58A819B81AF
:103210006115710589F1FB0193838283FE0111C061
:10322000408151810281138148175907E0F0481706
:10323000590799F4109761F012960C931297139610
:103240001C933296CF01DF91CF911F910F9108957A
:1032500000932C0610932D06F4CF2115310551F063
:103260004217530738F0A901DB019A01BD01DF01C4
:10327000F801C1CFEF01F9CF90932D0680932C0672
:10328000CDCFFE01E20FF31F8193919322503109BC
:1032900039832883D7CF20912A0630912B06232B00
:1032A00041F420911C0130911D0130932B06209395
:1032B0002A0620911A0130911B012115310541F494
:1032C0002DB73EB740911E0150911F01241B350BB5
:1032D000E0912A06F0912B06E217F307A0F42E1BCB
:1032E0003F0B2817390778F0AC014E5F5F4F24176A
:1032F000350748F04E0F5F1F50932B0640932A0668
:10330000819391939FCFF0E0E0E09CCFCF93DF9348
:103310000097E9F0FC01329713821282A0912C06EB
:10332000B0912D06ED0130E020E01097A1F420814E
:103330003181820F931F20912A0630912B06281786
:10334000390709F061C0F0932B06E0932A06DF915C
:10335000CF910895EA01CE17DF07E8F54A815B8136
:103360009E0141155105B1F7E901FB83EA834991BB
:103370005991C40FD51FEC17FD0761F4808191812D
:103380000296840F951FE901998388838281938136
:103390009B838A83F0E0E0E012968D919C911397D5
:1033A0000097B9F52D913C911197CD010296820FAE
:1033B000931F20912A0630912B062817390739F6DA
:1033C000309751F510922D0610922C06B0932B06D3
:1033D000A0932A06BCCFD383C28340815181840F3E
:1033E000951FC817D90761F44E5F5F4F8881998197
:1033F000480F591F518340838A819B819383828325
:103400002115310509F0B0CFF0932D06E0932C067D
:103410009ECFFD01DC01C0CF13821282D7CFFC0109
:103420000590615070400110D8F7809590958E0FEF
:103430009F1F0895DC0101C06D9341505040E0F79B
:103440000895FC016150704001900110D8F78095FB
:1034500090958E0F9F1F08950F931F93CF93DF9327
:10346000182F092FEB018B8181FD09C01FEF0FEF92
:10347000812F902FDF91CF911F910F91089582FF9F
:1034800014C02E813F818C819D81281739073CF41F
:10349000E881F981CF0101969983888310838E8119
:1034A0009F8101969F838E83E3CFE885F985812FE5
:1034B0000995892BA1F3DACFFA01AA27283051F117
:1034C000203181F1E8946F936E7F6E5F7F4F8F4F55
:1034D0009F4FAF4FB1E03ED0B4E03CD0670F781FB4
:1034E000891F9A1FA11D680F791F8A1F911DA11D99
:1034F0006A0F711D811D911DA11D20D009F46894D2
:103500003F912AE0269F11243019305D3193DEF679
:10351000CF010895462F4770405D4193B3E00FD02F
:10352000C9F7F6CF462F4F70405D4A3318F0495D1A
:1035300031FD4052419302D0A9F7EACFB4E0A695FD
:103540009795879577956795BA95C9F7009761051F
:10355000710508959B01AC010A2E06945795479575
:1035600037952795BA95C9F7620F731F841F951F6A
:10357000A01D0895052E97FB1EF400940E94D11AF9
:1035800057FD07D00E94231B07FC03D04EF40C9478
:10359000D11A50954095309521953F4F4F4F5F4F31
:1035A000089590958095709561957F4F8F4F9F4FAF
:1035B00008950E94451BA59F900DB49F900DA49F58
:1035C000800D911D11240895B7FF0C94D91A0E9403
:1035D000D91A821B930B08952F923F924F925F92BC
:1035E0006F927F928F929F92AF92BF92CF92DF9213
:1035F000EF92FF920F931F93CF93DF93CDB7DEB778
:10360000CA1BDB0B0FB6F894DEBF0FBECDBF09940B
:103610002A88398848885F846E847D848C849B8462
:10362000AA84B984C884DF80EE80FD800C811B8170
:10363000AA81B981CE0FD11D0FB6F894DEBF0FBE9F
:10364000CDBFED010895A1E21A2EAA1BBB1BFD01FF
:103650000DC0AA1FBB1FEE1FFF1FA217B307E40771
:10366000F50720F0A21BB30BE40BF50B661F771FC9
:10367000881F991F1A9469F76095709580959095A9
:103680009B01AC01BD01CF010895A29FB001B39F82
:10369000C001A39F700D811D1124911DB29F700D5B
:1036A000811D1124911D08950E945B1B6894B11126
:1036B0000C94EA1B08950E94CF1B88F09F5798F046
:1036C000B92F9927B751B0F0E1F0660F771F881F27
:1036D000991F1AF0BA95C9F714C0B13091F00E9441
:1036E000E91BB1E008950C94E91B672F782F882718
:1036F000B85F39F0B93FCCF3869577956795B39568
:10370000D9F73EF490958095709561957F4F8F4FD6
:103710009F4F0895E89409C097FB3EF490958095DB
:10372000709561957F4F8F4F9F4F9923A9F0F92F87
:1037300096E9BB279395F695879577956795B79505
:10374000F111F8CFFAF4BB0F11F460FF1BC06F5FEB
:103750007F4F8F4F9F4F16C0882311F096E911C0FD
:10376000772321F09EE8872F762F05C0662371F01E
:1037700096E8862F70E060E02AF09A95660F771F32
:10378000881FDAF7880F9695879597F9089557FD62
:103790009058440F551F59F05F3F71F04795880FBF
:1037A00097FB991F61F09F3F79F087950895121656
:1037B00013061406551FF2CF4695F1DF08C0161602
:1037C00017061806991FF1CF8695710561050894B3
:1037D0000895E894BB2766277727CB0197F90895CA
:1037E0000E94031C0C94741C0E94661C38F00E94FA
:1037F0006D1C20F0952311F00C945D1C0C94631C3F
:1038000011240C94EA1B0E94C71B70F3959FC1F30F
:10381000950F50E0551F629FF001729FBB27F00D7E
:10382000B11D639FAA27F00DB11DAA1F649F6627D3
:10383000B00DA11D661F829F2227B00DA11D621F22
:10384000739FB00DA11D621F839FA00D611D221FDC
:10385000749F3327A00D611D231F849F600D211DC0
:10386000822F762F6A2F11249F5750409AF0F1F043
:1038700088234AF0EE0FFF1FBB1F661F771F881FAC
:1038800091505040A9F79E3F510580F00C945D1C6B
:103890000C94EA1B5F3FE4F3983ED4F3869577954A
:1038A0006795B795F795E7959F5FC1F7FE2B880F52
:1038B000911D9695879597F9089597F99F6780E8E8
:1038C00070E060E008959FEF80EC089500240A9472
:1038D0001616170618060906089500240A941216EB
:1038E0001306140605060895092E0394000C11F41E
:1038F000882352F0BB0F40F4BF2B11F460FF04C0CB
:103900006F5F7F4F8F4F9F4F0895991B79E004C0E1
:10391000991F961708F0961B881F7A95C9F780950E
:10392000089597FB072E16F4009407D077FD09D071
:103930000E94611D07FC05D03EF4909581959F4F34
:103940000895709561957F4F08950E94451BB7FFBC
:103950000895821B930B0895689401C0E894F92F91
:10396000F12B12F00C94E01CA0E0B0E0EAEBFCE1DB
:103970000C94F21A092E059422F40E943C1D112386
:1039800092F4F0E80F26FFEFE094F0940095109584
:10399000B094C094D094A194BF0ACF0ADF0AEF0A72
:1039A000FF0A0F0B1F0B0E94EB1C07FC0E943C1D23
:1039B000CDB7DEB7ECE00C940E1B689401C0E89420
:1039C0008F929F92CF93DF930E94EB1CDF91CF9158
:1039D0009F908F90089588249924F401E401B0E425
:1039E0009F93AA279A158B049C04ED05FE05CF052D
:1039F000D007A10798F4AD2FDC2FCF2FFE2FE92D94
:103A0000982C892E982F872F762F652F542F432F90
:103A1000322F2227B85031F7BF9127C01B2EBF91FC
:103A2000BB27220F331F441F551F661F771F881F98
:103A3000991F881C991CEE1FFF1FCC1FDD1FAA1F9A
:103A4000BB1F8A149B04EC05FD05CE05DF05A0070E
:103A5000B10748F08A189B08EC09FD09CE09DF0977
:103A6000A00BB10B21601A94E1F62EF49401AF0182
:103A7000BE01CD01000C08956095709580959095DC
:103A800030954095509521953F4F4F4F5F4F6F4F69
:103A90007F4F8F4F9F4F08952A193B094C095D09AD
:103AA0006E097F09800B910B08950024A7FD0094F7
:103AB0002A17300540055005600570058005900502
:103AC0000895AA1BBB1B51E107C0AA1FBB1FA61765
:103AD000B70710F0A61BB70B881F991F5A95A9F7B7
:103AE00080959095BC01CD010895EE0FFF1F0590C4
:103AF000F491E02D099481E090E0F8940C949B1DE2
:103B0000FB01DC0102C001900D9241505040D8F7FA
:103B100008956817790768F4FB01DC01E40FF51FCD
:103B2000A40FB51F02C002900E9241505040D8F72A
:0A3B300008950C94801DF894FFCF57
:103B3A007265637600007472616E0000717D605573
:103B4A0048635B430C010100000000002E06800060
:103B5A000000011902321AC603DF33EE1B68C74B95
:103B6A000464E00E348DEF811CC169F8C8084C71F9
:103B7A00058A652FE1240F2135938EDAF0128245EA
:103B8A001DB5C27D6A27F9B9C99A09784DE472A6AA
:103B9A0006BF8B6266DD30FDE29825B3109122885C
:103BAA0036D094CE8F96DBBDF1D2135C8338464073
:103BBA001E42B6A3C3487E6E6B3A2854FA85BA3DB4
:103BCA00CA5E9B9F0A15792B4ED4E5AC73F3A757AF
:103BDA000770C0F78C80630D674ADEED31C5FE18A9
:103BEA00E3A5997726B8B47C114492D92320892E6B
:103BFA00373FD15B95BCCFCD908797B2DCFCBE61D5
:103C0A00F256D3AB142A5D9E843C3953476D41A2C8
:103C1A001F2D43D8B77BA476C41749EC7F0C6FF6E7
:103C2A006CA13B52299D55AAFB6086B1BBCC3E5A7A
:103C3A00CB595FB09CA9A0510BF516EB7A752CD71E
:103C4A004FAED5E9E6E7ADE874D6F4EAA85058AF26
:103C5A0001020408102040801D3A74E8CD8713261B
:103C6A004C982D5AB475EAC98F03060C183060C0F7
:103C7A009D274E9C254A94356AD4B577EEC19F2379
:103C8A00468C050A142850A05DBA69D2B96FDEA124
:103C9A005FBE61C2992F5EBC65CA890F1E3C78F06F
:103CAA00FDE7D3BB6BD6B17FFEE1DFA35BB671E262
:103CBA00D9AF4386112244880D1A3468D0BD67CE25
:103CCA00811F3E7CF8EDC7933B76ECC5973366CCF3
:103CDA0085172E5CB86DDAA94F9E214284152A54A5
:103CEA00A84D9A2952A455AA49923972E4D5B773B4
:103CFA00E6D1BF63C6913F7EFCE5D7B37BF6F1FF01
:103D0A00E3DBAB4B963162C495376EDCA557AE4107
:103D1A0082193264C88D070E1C3870E0DDA753A6DD
:103D2A0051A259B279F2F9EFC39B2B56AC458A09D5
:103D3A00122448903D7AF4F5F7F3FBEBCB8B0B1684
:103D4A002C58B07DFAE9CF831B366CD8AD478E016B
:103D5A00020408102040801D3A74E8CD8713264CCF
:103D6A00982D5AB475EAC98F03060C183060C09DA5
:103D7A00274E9C254A94356AD4B577EEC19F2346CF
:103D8A008C050A142850A05DBA69D2B96FDEA15F0A
:103D9A00BE61C2992F5EBC65CA890F1E3C78F0FDD0
:103DAA00E7D3BB6BD6B17FFEE1DFA35BB671E2D985
:103DBA00AF4386112244880D1A3468D0BD67CE817C
:103DCA001F3E7CF8EDC7933B76ECC5973366CC85EE
:103DDA00172E5CB86DDAA94F9E214284152A54A881
:103DEA004D9A2952A455AA49923972E4D5B773E675
:103DFA00D1BF63C6913F7EFCE5D7B37BF6F1FFE303
:103E0A00DBAB4B963162C495376EDCA557AE418267
:103E1A00193264C88D070E1C3870E0DDA753A6510D
:103E2A00A259B279F2F9EFC39B2B56AC458A091213
:103E3A002448903D7AF4F5F7F3FBEBCB8B0B162C69
:103E4A0058B07DFAE9CF831B366CD8AD478E010294
:103E5A00000000001E037E02AB026B03DC02BA0202
:103E6A00CE020D0A006877206661696C757265007A
:103E7A005243206C6F73742C2077616974696E6782
:103E8A00206174206368616E6E656C2000726563E0
:103E9A007620006661696C656420636F756E7420B4
:103EAA00005363686564756C652074696D656F7528
:043EBA00742100006F
:00000001FF
